{
  "contracts/test/MockObservable.sol": {
    "MockObservable": {
      "abi": [
        {
          "inputs": [
            {
              "internalType": "uint32[]",
              "name": "secondsAgos",
              "type": "uint32[]"
            },
            {
              "internalType": "int56[]",
              "name": "tickCumulatives",
              "type": "int56[]"
            },
            {
              "internalType": "uint160[]",
              "name": "secondsPerLiquidityCumulativeX128s",
              "type": "uint160[]"
            }
          ],
          "stateMutability": "nonpayable",
          "type": "constructor"
        },
        {
          "inputs": [
            {
              "internalType": "uint32[]",
              "name": "secondsAgos",
              "type": "uint32[]"
            }
          ],
          "name": "observe",
          "outputs": [
            {
              "internalType": "int56[]",
              "name": "tickCumulatives",
              "type": "int56[]"
            },
            {
              "internalType": "uint160[]",
              "name": "secondsPerLiquidityCumulativeX128s",
              "type": "uint160[]"
            }
          ],
          "stateMutability": "view",
          "type": "function"
        }
      ],
      "evm": {
        "bytecode": {
          "linkReferences": {},
          "object": "60806040523480156200001157600080fd5b5060405162000959380380620009598339810160408190526200003491620003a0565b8251600214801562000047575081516002145b801562000055575080516002145b620000a65760405162461bcd60e51b815260206004820152601660248201527f496e76616c6964207465737420636173652073697a6500000000000000000000604482015260640160405180910390fd5b604051806060016040528084600081518110620000c757620000c762000501565b602002602001015163ffffffff16815260200183600081518110620000f057620000f062000501565b602002602001015160060b81526020018260008151811062000116576200011662000501565b6020908102919091018101516001600160a01b03908116909252825160008054928501516040958601519094166b01000000000000000000000002600160581b600160f81b031960069590950b66ffffffffffffff16640100000000026001600160581b031990941663ffffffff9093169290921792909217929092169190911790558051606081019091528351819085906001908110620001bc57620001bc62000501565b602002602001015163ffffffff16815260200183600181518110620001e557620001e562000501565b602002602001015160060b8152602001826001815181106200020b576200020b62000501565b6020908102919091018101516001600160a01b03908116909252825160018054928501516040909501519093166b01000000000000000000000002600160581b600160f81b031960069590950b66ffffffffffffff16640100000000026001600160581b031990931663ffffffff909216919091179190911792909216919091179055506200052d915050565b600082601f830112620002aa57600080fd5b81516020620002c3620002bd83620004db565b620004a8565b80838252828201915082860187848660051b8901011115620002e457600080fd5b6000805b86811015620003155782518060060b811462000302578283fd5b85529385019391850191600101620002e8565b509198975050505050505050565b600082601f8301126200033557600080fd5b8151602062000348620002bd83620004db565b80838252828201915082860187848660051b89010111156200036957600080fd5b6000805b86811015620003155782516001600160a01b03811681146200038d578283fd5b855293850193918501916001016200036d565b600080600060608486031215620003b657600080fd5b83516001600160401b0380821115620003ce57600080fd5b818601915086601f830112620003e357600080fd5b81516020620003f6620002bd83620004db565b8083825282820191508286018b848660051b89010111156200041757600080fd5b600096505b848710156200044f57805163ffffffff811681146200043a57600080fd5b8352600196909601959183019183016200041c565b50918901519197509093505050808211156200046a57600080fd5b620004788783880162000298565b935060408601519150808211156200048f57600080fd5b506200049e8682870162000323565b9150509250925092565b604051601f8201601f191681016001600160401b0381118282101715620004d357620004d362000517565b604052919050565b60006001600160401b03821115620004f757620004f762000517565b5060051b60200190565b634e487b7160e01b600052603260045260246000fd5b634e487b7160e01b600052604160045260246000fd5b61041c806200053d6000396000f3fe608060405234801561001057600080fd5b506004361061002b5760003560e01c8063883bdbfd14610030575b600080fd5b61004361003e3660046102aa565b61005a565b60405161005192919061034c565b60405180910390f35b60008054606091829163ffffffff1690859085908161007b5761007b6103e0565b9050602002016020810190610090919061031f565b63ffffffff161480156100d957506001805463ffffffff1690859085908181106100bc576100bc6103e0565b90506020020160208101906100d1919061031f565b63ffffffff16145b610143576040517f08c379a000000000000000000000000000000000000000000000000000000000815260206004820152601160248201527f496e76616c696420746573742063617365000000000000000000000000000000604482015260640160405180910390fd5b6040805160028082526060820183526000926020830190803683375050600080548351939450640100000000900460060b92849250610184576101846103e0565b600692830b830b602091820292909201015260018054835164010000000090910490920b9183919081106101ba576101ba6103e0565b600692830b90920b602092830291909101820152604080516002808252606082018352600093919290918301908036833750506000805483519394506b010000000000000000000000900473ffffffffffffffffffffffffffffffffffffffff169284925061022b5761022b6103e0565b73ffffffffffffffffffffffffffffffffffffffff92831660209182029290920101526001805483516b010000000000000000000000909104909216918391908110610279576102796103e0565b73ffffffffffffffffffffffffffffffffffffffff9092166020928302919091019091015290925090509250929050565b600080602083850312156102bd57600080fd5b823567ffffffffffffffff808211156102d557600080fd5b818501915085601f8301126102e957600080fd5b8135818111156102f857600080fd5b8660208260051b850101111561030d57600080fd5b60209290920196919550909350505050565b60006020828403121561033157600080fd5b813563ffffffff8116811461034557600080fd5b9392505050565b604080825283519082018190526000906020906060840190828701845b8281101561038857815160060b84529284019290840190600101610369565b5050508381038285015284518082528583019183019060005b818110156103d357835173ffffffffffffffffffffffffffffffffffffffff16835292840192918401916001016103a1565b5090979650505050505050565b7f4e487b7100000000000000000000000000000000000000000000000000000000600052603260045260246000fdfea164736f6c6343000806000a",
          "opcodes": "PUSH1 0x80 PUSH1 0x40 MSTORE CALLVALUE DUP1 ISZERO PUSH3 0x11 JUMPI PUSH1 0x0 DUP1 REVERT JUMPDEST POP PUSH1 0x40 MLOAD PUSH3 0x959 CODESIZE SUB DUP1 PUSH3 0x959 DUP4 CODECOPY DUP2 ADD PUSH1 0x40 DUP2 SWAP1 MSTORE PUSH3 0x34 SWAP2 PUSH3 0x3A0 JUMP JUMPDEST DUP3 MLOAD PUSH1 0x2 EQ DUP1 ISZERO PUSH3 0x47 JUMPI POP DUP2 MLOAD PUSH1 0x2 EQ JUMPDEST DUP1 ISZERO PUSH3 0x55 JUMPI POP DUP1 MLOAD PUSH1 0x2 EQ JUMPDEST PUSH3 0xA6 JUMPI PUSH1 0x40 MLOAD PUSH3 0x461BCD PUSH1 0xE5 SHL DUP2 MSTORE PUSH1 0x20 PUSH1 0x4 DUP3 ADD MSTORE PUSH1 0x16 PUSH1 0x24 DUP3 ADD MSTORE PUSH32 0x496E76616C6964207465737420636173652073697A6500000000000000000000 PUSH1 0x44 DUP3 ADD MSTORE PUSH1 0x64 ADD PUSH1 0x40 MLOAD DUP1 SWAP2 SUB SWAP1 REVERT JUMPDEST PUSH1 0x40 MLOAD DUP1 PUSH1 0x60 ADD PUSH1 0x40 MSTORE DUP1 DUP5 PUSH1 0x0 DUP2 MLOAD DUP2 LT PUSH3 0xC7 JUMPI PUSH3 0xC7 PUSH3 0x501 JUMP JUMPDEST PUSH1 0x20 MUL PUSH1 0x20 ADD ADD MLOAD PUSH4 0xFFFFFFFF AND DUP2 MSTORE PUSH1 0x20 ADD DUP4 PUSH1 0x0 DUP2 MLOAD DUP2 LT PUSH3 0xF0 JUMPI PUSH3 0xF0 PUSH3 0x501 JUMP JUMPDEST PUSH1 0x20 MUL PUSH1 0x20 ADD ADD MLOAD PUSH1 0x6 SIGNEXTEND DUP2 MSTORE PUSH1 0x20 ADD DUP3 PUSH1 0x0 DUP2 MLOAD DUP2 LT PUSH3 0x116 JUMPI PUSH3 0x116 PUSH3 0x501 JUMP JUMPDEST PUSH1 0x20 SWAP1 DUP2 MUL SWAP2 SWAP1 SWAP2 ADD DUP2 ADD MLOAD PUSH1 0x1 PUSH1 0x1 PUSH1 0xA0 SHL SUB SWAP1 DUP2 AND SWAP1 SWAP3 MSTORE DUP3 MLOAD PUSH1 0x0 DUP1 SLOAD SWAP3 DUP6 ADD MLOAD PUSH1 0x40 SWAP6 DUP7 ADD MLOAD SWAP1 SWAP5 AND PUSH12 0x10000000000000000000000 MUL PUSH1 0x1 PUSH1 0x58 SHL PUSH1 0x1 PUSH1 0xF8 SHL SUB NOT PUSH1 0x6 SWAP6 SWAP1 SWAP6 SIGNEXTEND PUSH7 0xFFFFFFFFFFFFFF AND PUSH5 0x100000000 MUL PUSH1 0x1 PUSH1 0x1 PUSH1 0x58 SHL SUB NOT SWAP1 SWAP5 AND PUSH4 0xFFFFFFFF SWAP1 SWAP4 AND SWAP3 SWAP1 SWAP3 OR SWAP3 SWAP1 SWAP3 OR SWAP3 SWAP1 SWAP3 AND SWAP2 SWAP1 SWAP2 OR SWAP1 SSTORE DUP1 MLOAD PUSH1 0x60 DUP2 ADD SWAP1 SWAP2 MSTORE DUP4 MLOAD DUP2 SWAP1 DUP6 SWAP1 PUSH1 0x1 SWAP1 DUP2 LT PUSH3 0x1BC JUMPI PUSH3 0x1BC PUSH3 0x501 JUMP JUMPDEST PUSH1 0x20 MUL PUSH1 0x20 ADD ADD MLOAD PUSH4 0xFFFFFFFF AND DUP2 MSTORE PUSH1 0x20 ADD DUP4 PUSH1 0x1 DUP2 MLOAD DUP2 LT PUSH3 0x1E5 JUMPI PUSH3 0x1E5 PUSH3 0x501 JUMP JUMPDEST PUSH1 0x20 MUL PUSH1 0x20 ADD ADD MLOAD PUSH1 0x6 SIGNEXTEND DUP2 MSTORE PUSH1 0x20 ADD DUP3 PUSH1 0x1 DUP2 MLOAD DUP2 LT PUSH3 0x20B JUMPI PUSH3 0x20B PUSH3 0x501 JUMP JUMPDEST PUSH1 0x20 SWAP1 DUP2 MUL SWAP2 SWAP1 SWAP2 ADD DUP2 ADD MLOAD PUSH1 0x1 PUSH1 0x1 PUSH1 0xA0 SHL SUB SWAP1 DUP2 AND SWAP1 SWAP3 MSTORE DUP3 MLOAD PUSH1 0x1 DUP1 SLOAD SWAP3 DUP6 ADD MLOAD PUSH1 0x40 SWAP1 SWAP6 ADD MLOAD SWAP1 SWAP4 AND PUSH12 0x10000000000000000000000 MUL PUSH1 0x1 PUSH1 0x58 SHL PUSH1 0x1 PUSH1 0xF8 SHL SUB NOT PUSH1 0x6 SWAP6 SWAP1 SWAP6 SIGNEXTEND PUSH7 0xFFFFFFFFFFFFFF AND PUSH5 0x100000000 MUL PUSH1 0x1 PUSH1 0x1 PUSH1 0x58 SHL SUB NOT SWAP1 SWAP4 AND PUSH4 0xFFFFFFFF SWAP1 SWAP3 AND SWAP2 SWAP1 SWAP2 OR SWAP2 SWAP1 SWAP2 OR SWAP3 SWAP1 SWAP3 AND SWAP2 SWAP1 SWAP2 OR SWAP1 SSTORE POP PUSH3 0x52D SWAP2 POP POP JUMP JUMPDEST PUSH1 0x0 DUP3 PUSH1 0x1F DUP4 ADD SLT PUSH3 0x2AA JUMPI PUSH1 0x0 DUP1 REVERT JUMPDEST DUP2 MLOAD PUSH1 0x20 PUSH3 0x2C3 PUSH3 0x2BD DUP4 PUSH3 0x4DB JUMP JUMPDEST PUSH3 0x4A8 JUMP JUMPDEST DUP1 DUP4 DUP3 MSTORE DUP3 DUP3 ADD SWAP2 POP DUP3 DUP7 ADD DUP8 DUP5 DUP7 PUSH1 0x5 SHL DUP10 ADD ADD GT ISZERO PUSH3 0x2E4 JUMPI PUSH1 0x0 DUP1 REVERT JUMPDEST PUSH1 0x0 DUP1 JUMPDEST DUP7 DUP2 LT ISZERO PUSH3 0x315 JUMPI DUP3 MLOAD DUP1 PUSH1 0x6 SIGNEXTEND DUP2 EQ PUSH3 0x302 JUMPI DUP3 DUP4 REVERT JUMPDEST DUP6 MSTORE SWAP4 DUP6 ADD SWAP4 SWAP2 DUP6 ADD SWAP2 PUSH1 0x1 ADD PUSH3 0x2E8 JUMP JUMPDEST POP SWAP2 SWAP9 SWAP8 POP POP POP POP POP POP POP POP JUMP JUMPDEST PUSH1 0x0 DUP3 PUSH1 0x1F DUP4 ADD SLT PUSH3 0x335 JUMPI PUSH1 0x0 DUP1 REVERT JUMPDEST DUP2 MLOAD PUSH1 0x20 PUSH3 0x348 PUSH3 0x2BD DUP4 PUSH3 0x4DB JUMP JUMPDEST DUP1 DUP4 DUP3 MSTORE DUP3 DUP3 ADD SWAP2 POP DUP3 DUP7 ADD DUP8 DUP5 DUP7 PUSH1 0x5 SHL DUP10 ADD ADD GT ISZERO PUSH3 0x369 JUMPI PUSH1 0x0 DUP1 REVERT JUMPDEST PUSH1 0x0 DUP1 JUMPDEST DUP7 DUP2 LT ISZERO PUSH3 0x315 JUMPI DUP3 MLOAD PUSH1 0x1 PUSH1 0x1 PUSH1 0xA0 SHL SUB DUP2 AND DUP2 EQ PUSH3 0x38D JUMPI DUP3 DUP4 REVERT JUMPDEST DUP6 MSTORE SWAP4 DUP6 ADD SWAP4 SWAP2 DUP6 ADD SWAP2 PUSH1 0x1 ADD PUSH3 0x36D JUMP JUMPDEST PUSH1 0x0 DUP1 PUSH1 0x0 PUSH1 0x60 DUP5 DUP7 SUB SLT ISZERO PUSH3 0x3B6 JUMPI PUSH1 0x0 DUP1 REVERT JUMPDEST DUP4 MLOAD PUSH1 0x1 PUSH1 0x1 PUSH1 0x40 SHL SUB DUP1 DUP3 GT ISZERO PUSH3 0x3CE JUMPI PUSH1 0x0 DUP1 REVERT JUMPDEST DUP2 DUP7 ADD SWAP2 POP DUP7 PUSH1 0x1F DUP4 ADD SLT PUSH3 0x3E3 JUMPI PUSH1 0x0 DUP1 REVERT JUMPDEST DUP2 MLOAD PUSH1 0x20 PUSH3 0x3F6 PUSH3 0x2BD DUP4 PUSH3 0x4DB JUMP JUMPDEST DUP1 DUP4 DUP3 MSTORE DUP3 DUP3 ADD SWAP2 POP DUP3 DUP7 ADD DUP12 DUP5 DUP7 PUSH1 0x5 SHL DUP10 ADD ADD GT ISZERO PUSH3 0x417 JUMPI PUSH1 0x0 DUP1 REVERT JUMPDEST PUSH1 0x0 SWAP7 POP JUMPDEST DUP5 DUP8 LT ISZERO PUSH3 0x44F JUMPI DUP1 MLOAD PUSH4 0xFFFFFFFF DUP2 AND DUP2 EQ PUSH3 0x43A JUMPI PUSH1 0x0 DUP1 REVERT JUMPDEST DUP4 MSTORE PUSH1 0x1 SWAP7 SWAP1 SWAP7 ADD SWAP6 SWAP2 DUP4 ADD SWAP2 DUP4 ADD PUSH3 0x41C JUMP JUMPDEST POP SWAP2 DUP10 ADD MLOAD SWAP2 SWAP8 POP SWAP1 SWAP4 POP POP POP DUP1 DUP3 GT ISZERO PUSH3 0x46A JUMPI PUSH1 0x0 DUP1 REVERT JUMPDEST PUSH3 0x478 DUP8 DUP4 DUP9 ADD PUSH3 0x298 JUMP JUMPDEST SWAP4 POP PUSH1 0x40 DUP7 ADD MLOAD SWAP2 POP DUP1 DUP3 GT ISZERO PUSH3 0x48F JUMPI PUSH1 0x0 DUP1 REVERT JUMPDEST POP PUSH3 0x49E DUP7 DUP3 DUP8 ADD PUSH3 0x323 JUMP JUMPDEST SWAP2 POP POP SWAP3 POP SWAP3 POP SWAP3 JUMP JUMPDEST PUSH1 0x40 MLOAD PUSH1 0x1F DUP3 ADD PUSH1 0x1F NOT AND DUP2 ADD PUSH1 0x1 PUSH1 0x1 PUSH1 0x40 SHL SUB DUP2 GT DUP3 DUP3 LT OR ISZERO PUSH3 0x4D3 JUMPI PUSH3 0x4D3 PUSH3 0x517 JUMP JUMPDEST PUSH1 0x40 MSTORE SWAP2 SWAP1 POP JUMP JUMPDEST PUSH1 0x0 PUSH1 0x1 PUSH1 0x1 PUSH1 0x40 SHL SUB DUP3 GT ISZERO PUSH3 0x4F7 JUMPI PUSH3 0x4F7 PUSH3 0x517 JUMP JUMPDEST POP PUSH1 0x5 SHL PUSH1 0x20 ADD SWAP1 JUMP JUMPDEST PUSH4 0x4E487B71 PUSH1 0xE0 SHL PUSH1 0x0 MSTORE PUSH1 0x32 PUSH1 0x4 MSTORE PUSH1 0x24 PUSH1 0x0 REVERT JUMPDEST PUSH4 0x4E487B71 PUSH1 0xE0 SHL PUSH1 0x0 MSTORE PUSH1 0x41 PUSH1 0x4 MSTORE PUSH1 0x24 PUSH1 0x0 REVERT JUMPDEST PUSH2 0x41C DUP1 PUSH3 0x53D PUSH1 0x0 CODECOPY PUSH1 0x0 RETURN INVALID PUSH1 0x80 PUSH1 0x40 MSTORE CALLVALUE DUP1 ISZERO PUSH2 0x10 JUMPI PUSH1 0x0 DUP1 REVERT JUMPDEST POP PUSH1 0x4 CALLDATASIZE LT PUSH2 0x2B JUMPI PUSH1 0x0 CALLDATALOAD PUSH1 0xE0 SHR DUP1 PUSH4 0x883BDBFD EQ PUSH2 0x30 JUMPI JUMPDEST PUSH1 0x0 DUP1 REVERT JUMPDEST PUSH2 0x43 PUSH2 0x3E CALLDATASIZE PUSH1 0x4 PUSH2 0x2AA JUMP JUMPDEST PUSH2 0x5A JUMP JUMPDEST PUSH1 0x40 MLOAD PUSH2 0x51 SWAP3 SWAP2 SWAP1 PUSH2 0x34C JUMP JUMPDEST PUSH1 0x40 MLOAD DUP1 SWAP2 SUB SWAP1 RETURN JUMPDEST PUSH1 0x0 DUP1 SLOAD PUSH1 0x60 SWAP2 DUP3 SWAP2 PUSH4 0xFFFFFFFF AND SWAP1 DUP6 SWAP1 DUP6 SWAP1 DUP2 PUSH2 0x7B JUMPI PUSH2 0x7B PUSH2 0x3E0 JUMP JUMPDEST SWAP1 POP PUSH1 0x20 MUL ADD PUSH1 0x20 DUP2 ADD SWAP1 PUSH2 0x90 SWAP2 SWAP1 PUSH2 0x31F JUMP JUMPDEST PUSH4 0xFFFFFFFF AND EQ DUP1 ISZERO PUSH2 0xD9 JUMPI POP PUSH1 0x1 DUP1 SLOAD PUSH4 0xFFFFFFFF AND SWAP1 DUP6 SWAP1 DUP6 SWAP1 DUP2 DUP2 LT PUSH2 0xBC JUMPI PUSH2 0xBC PUSH2 0x3E0 JUMP JUMPDEST SWAP1 POP PUSH1 0x20 MUL ADD PUSH1 0x20 DUP2 ADD SWAP1 PUSH2 0xD1 SWAP2 SWAP1 PUSH2 0x31F JUMP JUMPDEST PUSH4 0xFFFFFFFF AND EQ JUMPDEST PUSH2 0x143 JUMPI PUSH1 0x40 MLOAD PUSH32 0x8C379A000000000000000000000000000000000000000000000000000000000 DUP2 MSTORE PUSH1 0x20 PUSH1 0x4 DUP3 ADD MSTORE PUSH1 0x11 PUSH1 0x24 DUP3 ADD MSTORE PUSH32 0x496E76616C696420746573742063617365000000000000000000000000000000 PUSH1 0x44 DUP3 ADD MSTORE PUSH1 0x64 ADD PUSH1 0x40 MLOAD DUP1 SWAP2 SUB SWAP1 REVERT JUMPDEST PUSH1 0x40 DUP1 MLOAD PUSH1 0x2 DUP1 DUP3 MSTORE PUSH1 0x60 DUP3 ADD DUP4 MSTORE PUSH1 0x0 SWAP3 PUSH1 0x20 DUP4 ADD SWAP1 DUP1 CALLDATASIZE DUP4 CALLDATACOPY POP POP PUSH1 0x0 DUP1 SLOAD DUP4 MLOAD SWAP4 SWAP5 POP PUSH5 0x100000000 SWAP1 DIV PUSH1 0x6 SIGNEXTEND SWAP3 DUP5 SWAP3 POP PUSH2 0x184 JUMPI PUSH2 0x184 PUSH2 0x3E0 JUMP JUMPDEST PUSH1 0x6 SWAP3 DUP4 SIGNEXTEND DUP4 SIGNEXTEND PUSH1 0x20 SWAP2 DUP3 MUL SWAP3 SWAP1 SWAP3 ADD ADD MSTORE PUSH1 0x1 DUP1 SLOAD DUP4 MLOAD PUSH5 0x100000000 SWAP1 SWAP2 DIV SWAP1 SWAP3 SIGNEXTEND SWAP2 DUP4 SWAP2 SWAP1 DUP2 LT PUSH2 0x1BA JUMPI PUSH2 0x1BA PUSH2 0x3E0 JUMP JUMPDEST PUSH1 0x6 SWAP3 DUP4 SIGNEXTEND SWAP1 SWAP3 SIGNEXTEND PUSH1 0x20 SWAP3 DUP4 MUL SWAP2 SWAP1 SWAP2 ADD DUP3 ADD MSTORE PUSH1 0x40 DUP1 MLOAD PUSH1 0x2 DUP1 DUP3 MSTORE PUSH1 0x60 DUP3 ADD DUP4 MSTORE PUSH1 0x0 SWAP4 SWAP2 SWAP3 SWAP1 SWAP2 DUP4 ADD SWAP1 DUP1 CALLDATASIZE DUP4 CALLDATACOPY POP POP PUSH1 0x0 DUP1 SLOAD DUP4 MLOAD SWAP4 SWAP5 POP PUSH12 0x10000000000000000000000 SWAP1 DIV PUSH20 0xFFFFFFFFFFFFFFFFFFFFFFFFFFFFFFFFFFFFFFFF AND SWAP3 DUP5 SWAP3 POP PUSH2 0x22B JUMPI PUSH2 0x22B PUSH2 0x3E0 JUMP JUMPDEST PUSH20 0xFFFFFFFFFFFFFFFFFFFFFFFFFFFFFFFFFFFFFFFF SWAP3 DUP4 AND PUSH1 0x20 SWAP2 DUP3 MUL SWAP3 SWAP1 SWAP3 ADD ADD MSTORE PUSH1 0x1 DUP1 SLOAD DUP4 MLOAD PUSH12 0x10000000000000000000000 SWAP1 SWAP2 DIV SWAP1 SWAP3 AND SWAP2 DUP4 SWAP2 SWAP1 DUP2 LT PUSH2 0x279 JUMPI PUSH2 0x279 PUSH2 0x3E0 JUMP JUMPDEST PUSH20 0xFFFFFFFFFFFFFFFFFFFFFFFFFFFFFFFFFFFFFFFF SWAP1 SWAP3 AND PUSH1 0x20 SWAP3 DUP4 MUL SWAP2 SWAP1 SWAP2 ADD SWAP1 SWAP2 ADD MSTORE SWAP1 SWAP3 POP SWAP1 POP SWAP3 POP SWAP3 SWAP1 POP JUMP JUMPDEST PUSH1 0x0 DUP1 PUSH1 0x20 DUP4 DUP6 SUB SLT ISZERO PUSH2 0x2BD JUMPI PUSH1 0x0 DUP1 REVERT JUMPDEST DUP3 CALLDATALOAD PUSH8 0xFFFFFFFFFFFFFFFF DUP1 DUP3 GT ISZERO PUSH2 0x2D5 JUMPI PUSH1 0x0 DUP1 REVERT JUMPDEST DUP2 DUP6 ADD SWAP2 POP DUP6 PUSH1 0x1F DUP4 ADD SLT PUSH2 0x2E9 JUMPI PUSH1 0x0 DUP1 REVERT JUMPDEST DUP2 CALLDATALOAD DUP2 DUP2 GT ISZERO PUSH2 0x2F8 JUMPI PUSH1 0x0 DUP1 REVERT JUMPDEST DUP7 PUSH1 0x20 DUP3 PUSH1 0x5 SHL DUP6 ADD ADD GT ISZERO PUSH2 0x30D JUMPI PUSH1 0x0 DUP1 REVERT JUMPDEST PUSH1 0x20 SWAP3 SWAP1 SWAP3 ADD SWAP7 SWAP2 SWAP6 POP SWAP1 SWAP4 POP POP POP POP JUMP JUMPDEST PUSH1 0x0 PUSH1 0x20 DUP3 DUP5 SUB SLT ISZERO PUSH2 0x331 JUMPI PUSH1 0x0 DUP1 REVERT JUMPDEST DUP2 CALLDATALOAD PUSH4 0xFFFFFFFF DUP2 AND DUP2 EQ PUSH2 0x345 JUMPI PUSH1 0x0 DUP1 REVERT JUMPDEST SWAP4 SWAP3 POP POP POP JUMP JUMPDEST PUSH1 0x40 DUP1 DUP3 MSTORE DUP4 MLOAD SWAP1 DUP3 ADD DUP2 SWAP1 MSTORE PUSH1 0x0 SWAP1 PUSH1 0x20 SWAP1 PUSH1 0x60 DUP5 ADD SWAP1 DUP3 DUP8 ADD DUP5 JUMPDEST DUP3 DUP2 LT ISZERO PUSH2 0x388 JUMPI DUP2 MLOAD PUSH1 0x6 SIGNEXTEND DUP5 MSTORE SWAP3 DUP5 ADD SWAP3 SWAP1 DUP5 ADD SWAP1 PUSH1 0x1 ADD PUSH2 0x369 JUMP JUMPDEST POP POP POP DUP4 DUP2 SUB DUP3 DUP6 ADD MSTORE DUP5 MLOAD DUP1 DUP3 MSTORE DUP6 DUP4 ADD SWAP2 DUP4 ADD SWAP1 PUSH1 0x0 JUMPDEST DUP2 DUP2 LT ISZERO PUSH2 0x3D3 JUMPI DUP4 MLOAD PUSH20 0xFFFFFFFFFFFFFFFFFFFFFFFFFFFFFFFFFFFFFFFF AND DUP4 MSTORE SWAP3 DUP5 ADD SWAP3 SWAP2 DUP5 ADD SWAP2 PUSH1 0x1 ADD PUSH2 0x3A1 JUMP JUMPDEST POP SWAP1 SWAP8 SWAP7 POP POP POP POP POP POP POP JUMP JUMPDEST PUSH32 0x4E487B7100000000000000000000000000000000000000000000000000000000 PUSH1 0x0 MSTORE PUSH1 0x32 PUSH1 0x4 MSTORE PUSH1 0x24 PUSH1 0x0 REVERT INVALID LOG1 PUSH5 0x736F6C6343 STOP ADDMOD MOD STOP EXP "
        },
        "methodIdentifiers": {
          "observe(uint32[])": "883bdbfd"
        }
      }
    }
  }
}