{
  "contracts/test/MockObservations.sol": {
    "MockObservations": {
      "abi": [
        {
          "inputs": [
            {
              "internalType": "uint32[4]",
              "name": "_blockTimestamps",
              "type": "uint32[4]"
            },
            {
              "internalType": "int56[4]",
              "name": "_tickCumulatives",
              "type": "int56[4]"
            },
            {
              "internalType": "uint128[4]",
              "name": "_secondsPerLiquidityCumulativeX128s",
              "type": "uint128[4]"
            },
            {
              "internalType": "bool[4]",
              "name": "_initializeds",
              "type": "bool[4]"
            },
            {
              "internalType": "int24",
              "name": "_tick",
              "type": "int24"
            },
            {
              "internalType": "uint16",
              "name": "_observationCardinality",
              "type": "uint16"
            },
            {
              "internalType": "uint16",
              "name": "_observationIndex",
              "type": "uint16"
            },
            {
              "internalType": "bool",
              "name": "_lastObservationCurrentTimestamp",
              "type": "bool"
            },
            {
              "internalType": "uint128",
              "name": "_liquidity",
              "type": "uint128"
            }
          ],
          "stateMutability": "nonpayable",
          "type": "constructor"
        },
        {
          "inputs": [],
          "name": "liquidity",
          "outputs": [
            {
              "internalType": "uint128",
              "name": "",
              "type": "uint128"
            }
          ],
          "stateMutability": "view",
          "type": "function"
        },
        {
          "inputs": [
            {
              "internalType": "uint256",
              "name": "index",
              "type": "uint256"
            }
          ],
          "name": "observations",
          "outputs": [
            {
              "internalType": "uint32",
              "name": "",
              "type": "uint32"
            },
            {
              "internalType": "int56",
              "name": "",
              "type": "int56"
            },
            {
              "internalType": "uint160",
              "name": "",
              "type": "uint160"
            },
            {
              "internalType": "bool",
              "name": "",
              "type": "bool"
            }
          ],
          "stateMutability": "view",
          "type": "function"
        },
        {
          "inputs": [],
          "name": "slot0",
          "outputs": [
            {
              "internalType": "uint160",
              "name": "",
              "type": "uint160"
            },
            {
              "internalType": "int24",
              "name": "",
              "type": "int24"
            },
            {
              "internalType": "uint16",
              "name": "",
              "type": "uint16"
            },
            {
              "internalType": "uint16",
              "name": "",
              "type": "uint16"
            },
            {
              "internalType": "uint16",
              "name": "",
              "type": "uint16"
            },
            {
              "internalType": "uint8",
              "name": "",
              "type": "uint8"
            },
            {
              "internalType": "bool",
              "name": "",
              "type": "bool"
            }
          ],
          "stateMutability": "view",
          "type": "function"
        }
      ],
      "evm": {
        "bytecode": {
          "linkReferences": {},
          "object": "608060405234801561001057600080fd5b5060405161082f38038061082f83398101604081905261002f91610380565b60005b600481101561017d5760405180608001604052808b8360048110610058576100586104ea565b602002015163ffffffff1681526020018a836004811061007a5761007a6104ea565b602002015160060b8152602001898360048110610099576100996104ea565b60200201516001600160801b03166001600160a01b031681526020018883600481106100c7576100c76104ea565b602002015115159052600082600481106100e3576100e36104ea565b825191018054602084015160408501516060909501511515600160f81b026001600160f81b036001600160a01b039096166b01000000000000000000000002959095166001600160581b0360069290920b66ffffffffffffff16640100000000026001600160581b031990931663ffffffff9095169490941791909117169190911791909117905580610175816104c1565b915050610032565b50600480546001600160801b0390921667010000000000000002600160381b600160b81b0319931515600160b81b0260ff60b81b1961ffff96871665010000000000021661ffff60281b60ff60b81b01199690971663010000000264ffffffffff1990941660029890980b62ffffff169790971792909217939093169390931793909317929092161790555061050092505050565b600082601f83011261022357600080fd5b61022b61048b565b80838560808601111561023d57600080fd5b60005b60048110156102675761025282610330565b84526020938401939190910190600101610240565b509095945050505050565b600082601f83011261028357600080fd5b61028b61048b565b80838560808601111561029d57600080fd5b6000805b60048110156102cf5782518060060b81146102ba578283fd5b855260209485019492909201916001016102a1565b50919695505050505050565b600082601f8301126102ec57600080fd5b6102f461048b565b80838560808601111561030657600080fd5b60005b60048110156102675761031b82610357565b84526020938401939190910190600101610309565b8051801515811461034057600080fd5b919050565b8051600281900b811461034057600080fd5b80516001600160801b038116811461034057600080fd5b805161ffff8116811461034057600080fd5b60008060008060008060008060006102a08a8c03121561039f57600080fd5b8a601f8b01126103ae57600080fd5b6103b661048b565b808b60808d018e8111156103c957600080fd5b6000805b60048110156103fe57835163ffffffff811681146103e9578283fd5b865260209586019593909301926001016103cd565b5050829c5061040d8f82610272565b9b50505050506104218b6101008c016102db565b96506104318b6101808c01610212565b95506104406102008b01610345565b945061044f6102208b0161036e565b935061045e6102408b0161036e565b925061046d6102608b01610330565b915061047c6102808b01610357565b90509295985092959850929598565b604051608081016001600160401b03811182821017156104bb57634e487b7160e01b600052604160045260246000fd5b60405290565b60006000198214156104e357634e487b7160e01b600052601160045260246000fd5b5060010190565b634e487b7160e01b600052603260045260246000fd5b6103208061050f6000396000f3fe608060405234801561001057600080fd5b50600436106100415760003560e01c80631a68650214610046578063252c09d7146100935780633850c7bd146100ed575b600080fd5b60045461006d9067010000000000000090046fffffffffffffffffffffffffffffffff1681565b6040516fffffffffffffffffffffffffffffffff90911681526020015b60405180910390f35b6100a66100a136600461027f565b610148565b6040805163ffffffff909516855260069390930b602085015273ffffffffffffffffffffffffffffffffffffffff909116918301919091521515606082015260800161008a565b600454604080516000808252600284810b900b602083015261ffff650100000000008504811693830193909352630100000090930490911660608201526080810182905260a0810182905260c081019190915260e00161008a565b6000806000806000808660048110610162576101626102e4565b60408051608081018252929091015463ffffffff811683526401000000008104600690810b810b900b602084015273ffffffffffffffffffffffffffffffffffffffff6b0100000000000000000000008204169183019190915260ff7f010000000000000000000000000000000000000000000000000000000000000090910481161515606083015260045491925077010000000000000000000000000000000000000000000000909104161561025e578051600480546000916501000000000090910461ffff16908110610239576102396102e4565b015461024b919063ffffffff16610298565b6102559042610298565b63ffffffff1681525b80516020820151604083015160609093015191989097509195509350915050565b60006020828403121561029157600080fd5b5035919050565b600063ffffffff838116908316818110156102dc577f4e487b7100000000000000000000000000000000000000000000000000000000600052601160045260246000fd5b039392505050565b7f4e487b7100000000000000000000000000000000000000000000000000000000600052603260045260246000fdfea164736f6c6343000806000a",
          "opcodes": "PUSH1 0x80 PUSH1 0x40 MSTORE CALLVALUE DUP1 ISZERO PUSH2 0x10 JUMPI PUSH1 0x0 DUP1 REVERT JUMPDEST POP PUSH1 0x40 MLOAD PUSH2 0x82F CODESIZE SUB DUP1 PUSH2 0x82F DUP4 CODECOPY DUP2 ADD PUSH1 0x40 DUP2 SWAP1 MSTORE PUSH2 0x2F SWAP2 PUSH2 0x380 JUMP JUMPDEST PUSH1 0x0 JUMPDEST PUSH1 0x4 DUP2 LT ISZERO PUSH2 0x17D JUMPI PUSH1 0x40 MLOAD DUP1 PUSH1 0x80 ADD PUSH1 0x40 MSTORE DUP1 DUP12 DUP4 PUSH1 0x4 DUP2 LT PUSH2 0x58 JUMPI PUSH2 0x58 PUSH2 0x4EA JUMP JUMPDEST PUSH1 0x20 MUL ADD MLOAD PUSH4 0xFFFFFFFF AND DUP2 MSTORE PUSH1 0x20 ADD DUP11 DUP4 PUSH1 0x4 DUP2 LT PUSH2 0x7A JUMPI PUSH2 0x7A PUSH2 0x4EA JUMP JUMPDEST PUSH1 0x20 MUL ADD MLOAD PUSH1 0x6 SIGNEXTEND DUP2 MSTORE PUSH1 0x20 ADD DUP10 DUP4 PUSH1 0x4 DUP2 LT PUSH2 0x99 JUMPI PUSH2 0x99 PUSH2 0x4EA JUMP JUMPDEST PUSH1 0x20 MUL ADD MLOAD PUSH1 0x1 PUSH1 0x1 PUSH1 0x80 SHL SUB AND PUSH1 0x1 PUSH1 0x1 PUSH1 0xA0 SHL SUB AND DUP2 MSTORE PUSH1 0x20 ADD DUP9 DUP4 PUSH1 0x4 DUP2 LT PUSH2 0xC7 JUMPI PUSH2 0xC7 PUSH2 0x4EA JUMP JUMPDEST PUSH1 0x20 MUL ADD MLOAD ISZERO ISZERO SWAP1 MSTORE PUSH1 0x0 DUP3 PUSH1 0x4 DUP2 LT PUSH2 0xE3 JUMPI PUSH2 0xE3 PUSH2 0x4EA JUMP JUMPDEST DUP3 MLOAD SWAP2 ADD DUP1 SLOAD PUSH1 0x20 DUP5 ADD MLOAD PUSH1 0x40 DUP6 ADD MLOAD PUSH1 0x60 SWAP1 SWAP6 ADD MLOAD ISZERO ISZERO PUSH1 0x1 PUSH1 0xF8 SHL MUL PUSH1 0x1 PUSH1 0x1 PUSH1 0xF8 SHL SUB PUSH1 0x1 PUSH1 0x1 PUSH1 0xA0 SHL SUB SWAP1 SWAP7 AND PUSH12 0x10000000000000000000000 MUL SWAP6 SWAP1 SWAP6 AND PUSH1 0x1 PUSH1 0x1 PUSH1 0x58 SHL SUB PUSH1 0x6 SWAP3 SWAP1 SWAP3 SIGNEXTEND PUSH7 0xFFFFFFFFFFFFFF AND PUSH5 0x100000000 MUL PUSH1 0x1 PUSH1 0x1 PUSH1 0x58 SHL SUB NOT SWAP1 SWAP4 AND PUSH4 0xFFFFFFFF SWAP1 SWAP6 AND SWAP5 SWAP1 SWAP5 OR SWAP2 SWAP1 SWAP2 OR AND SWAP2 SWAP1 SWAP2 OR SWAP2 SWAP1 SWAP2 OR SWAP1 SSTORE DUP1 PUSH2 0x175 DUP2 PUSH2 0x4C1 JUMP JUMPDEST SWAP2 POP POP PUSH2 0x32 JUMP JUMPDEST POP PUSH1 0x4 DUP1 SLOAD PUSH1 0x1 PUSH1 0x1 PUSH1 0x80 SHL SUB SWAP1 SWAP3 AND PUSH8 0x100000000000000 MUL PUSH1 0x1 PUSH1 0x38 SHL PUSH1 0x1 PUSH1 0xB8 SHL SUB NOT SWAP4 ISZERO ISZERO PUSH1 0x1 PUSH1 0xB8 SHL MUL PUSH1 0xFF PUSH1 0xB8 SHL NOT PUSH2 0xFFFF SWAP7 DUP8 AND PUSH6 0x10000000000 MUL AND PUSH2 0xFFFF PUSH1 0x28 SHL PUSH1 0xFF PUSH1 0xB8 SHL ADD NOT SWAP7 SWAP1 SWAP8 AND PUSH4 0x1000000 MUL PUSH5 0xFFFFFFFFFF NOT SWAP1 SWAP5 AND PUSH1 0x2 SWAP9 SWAP1 SWAP9 SIGNEXTEND PUSH3 0xFFFFFF AND SWAP8 SWAP1 SWAP8 OR SWAP3 SWAP1 SWAP3 OR SWAP4 SWAP1 SWAP4 AND SWAP4 SWAP1 SWAP4 OR SWAP4 SWAP1 SWAP4 OR SWAP3 SWAP1 SWAP3 AND OR SWAP1 SSTORE POP PUSH2 0x500 SWAP3 POP POP POP JUMP JUMPDEST PUSH1 0x0 DUP3 PUSH1 0x1F DUP4 ADD SLT PUSH2 0x223 JUMPI PUSH1 0x0 DUP1 REVERT JUMPDEST PUSH2 0x22B PUSH2 0x48B JUMP JUMPDEST DUP1 DUP4 DUP6 PUSH1 0x80 DUP7 ADD GT ISZERO PUSH2 0x23D JUMPI PUSH1 0x0 DUP1 REVERT JUMPDEST PUSH1 0x0 JUMPDEST PUSH1 0x4 DUP2 LT ISZERO PUSH2 0x267 JUMPI PUSH2 0x252 DUP3 PUSH2 0x330 JUMP JUMPDEST DUP5 MSTORE PUSH1 0x20 SWAP4 DUP5 ADD SWAP4 SWAP2 SWAP1 SWAP2 ADD SWAP1 PUSH1 0x1 ADD PUSH2 0x240 JUMP JUMPDEST POP SWAP1 SWAP6 SWAP5 POP POP POP POP POP JUMP JUMPDEST PUSH1 0x0 DUP3 PUSH1 0x1F DUP4 ADD SLT PUSH2 0x283 JUMPI PUSH1 0x0 DUP1 REVERT JUMPDEST PUSH2 0x28B PUSH2 0x48B JUMP JUMPDEST DUP1 DUP4 DUP6 PUSH1 0x80 DUP7 ADD GT ISZERO PUSH2 0x29D JUMPI PUSH1 0x0 DUP1 REVERT JUMPDEST PUSH1 0x0 DUP1 JUMPDEST PUSH1 0x4 DUP2 LT ISZERO PUSH2 0x2CF JUMPI DUP3 MLOAD DUP1 PUSH1 0x6 SIGNEXTEND DUP2 EQ PUSH2 0x2BA JUMPI DUP3 DUP4 REVERT JUMPDEST DUP6 MSTORE PUSH1 0x20 SWAP5 DUP6 ADD SWAP5 SWAP3 SWAP1 SWAP3 ADD SWAP2 PUSH1 0x1 ADD PUSH2 0x2A1 JUMP JUMPDEST POP SWAP2 SWAP7 SWAP6 POP POP POP POP POP POP JUMP JUMPDEST PUSH1 0x0 DUP3 PUSH1 0x1F DUP4 ADD SLT PUSH2 0x2EC JUMPI PUSH1 0x0 DUP1 REVERT JUMPDEST PUSH2 0x2F4 PUSH2 0x48B JUMP JUMPDEST DUP1 DUP4 DUP6 PUSH1 0x80 DUP7 ADD GT ISZERO PUSH2 0x306 JUMPI PUSH1 0x0 DUP1 REVERT JUMPDEST PUSH1 0x0 JUMPDEST PUSH1 0x4 DUP2 LT ISZERO PUSH2 0x267 JUMPI PUSH2 0x31B DUP3 PUSH2 0x357 JUMP JUMPDEST DUP5 MSTORE PUSH1 0x20 SWAP4 DUP5 ADD SWAP4 SWAP2 SWAP1 SWAP2 ADD SWAP1 PUSH1 0x1 ADD PUSH2 0x309 JUMP JUMPDEST DUP1 MLOAD DUP1 ISZERO ISZERO DUP2 EQ PUSH2 0x340 JUMPI PUSH1 0x0 DUP1 REVERT JUMPDEST SWAP2 SWAP1 POP JUMP JUMPDEST DUP1 MLOAD PUSH1 0x2 DUP2 SWAP1 SIGNEXTEND DUP2 EQ PUSH2 0x340 JUMPI PUSH1 0x0 DUP1 REVERT JUMPDEST DUP1 MLOAD PUSH1 0x1 PUSH1 0x1 PUSH1 0x80 SHL SUB DUP2 AND DUP2 EQ PUSH2 0x340 JUMPI PUSH1 0x0 DUP1 REVERT JUMPDEST DUP1 MLOAD PUSH2 0xFFFF DUP2 AND DUP2 EQ PUSH2 0x340 JUMPI PUSH1 0x0 DUP1 REVERT JUMPDEST PUSH1 0x0 DUP1 PUSH1 0x0 DUP1 PUSH1 0x0 DUP1 PUSH1 0x0 DUP1 PUSH1 0x0 PUSH2 0x2A0 DUP11 DUP13 SUB SLT ISZERO PUSH2 0x39F JUMPI PUSH1 0x0 DUP1 REVERT JUMPDEST DUP11 PUSH1 0x1F DUP12 ADD SLT PUSH2 0x3AE JUMPI PUSH1 0x0 DUP1 REVERT JUMPDEST PUSH2 0x3B6 PUSH2 0x48B JUMP JUMPDEST DUP1 DUP12 PUSH1 0x80 DUP14 ADD DUP15 DUP2 GT ISZERO PUSH2 0x3C9 JUMPI PUSH1 0x0 DUP1 REVERT JUMPDEST PUSH1 0x0 DUP1 JUMPDEST PUSH1 0x4 DUP2 LT ISZERO PUSH2 0x3FE JUMPI DUP4 MLOAD PUSH4 0xFFFFFFFF DUP2 AND DUP2 EQ PUSH2 0x3E9 JUMPI DUP3 DUP4 REVERT JUMPDEST DUP7 MSTORE PUSH1 0x20 SWAP6 DUP7 ADD SWAP6 SWAP4 SWAP1 SWAP4 ADD SWAP3 PUSH1 0x1 ADD PUSH2 0x3CD JUMP JUMPDEST POP POP DUP3 SWAP13 POP PUSH2 0x40D DUP16 DUP3 PUSH2 0x272 JUMP JUMPDEST SWAP12 POP POP POP POP POP PUSH2 0x421 DUP12 PUSH2 0x100 DUP13 ADD PUSH2 0x2DB JUMP JUMPDEST SWAP7 POP PUSH2 0x431 DUP12 PUSH2 0x180 DUP13 ADD PUSH2 0x212 JUMP JUMPDEST SWAP6 POP PUSH2 0x440 PUSH2 0x200 DUP12 ADD PUSH2 0x345 JUMP JUMPDEST SWAP5 POP PUSH2 0x44F PUSH2 0x220 DUP12 ADD PUSH2 0x36E JUMP JUMPDEST SWAP4 POP PUSH2 0x45E PUSH2 0x240 DUP12 ADD PUSH2 0x36E JUMP JUMPDEST SWAP3 POP PUSH2 0x46D PUSH2 0x260 DUP12 ADD PUSH2 0x330 JUMP JUMPDEST SWAP2 POP PUSH2 0x47C PUSH2 0x280 DUP12 ADD PUSH2 0x357 JUMP JUMPDEST SWAP1 POP SWAP3 SWAP6 SWAP9 POP SWAP3 SWAP6 SWAP9 POP SWAP3 SWAP6 SWAP9 JUMP JUMPDEST PUSH1 0x40 MLOAD PUSH1 0x80 DUP2 ADD PUSH1 0x1 PUSH1 0x1 PUSH1 0x40 SHL SUB DUP2 GT DUP3 DUP3 LT OR ISZERO PUSH2 0x4BB JUMPI PUSH4 0x4E487B71 PUSH1 0xE0 SHL PUSH1 0x0 MSTORE PUSH1 0x41 PUSH1 0x4 MSTORE PUSH1 0x24 PUSH1 0x0 REVERT JUMPDEST PUSH1 0x40 MSTORE SWAP1 JUMP JUMPDEST PUSH1 0x0 PUSH1 0x0 NOT DUP3 EQ ISZERO PUSH2 0x4E3 JUMPI PUSH4 0x4E487B71 PUSH1 0xE0 SHL PUSH1 0x0 MSTORE PUSH1 0x11 PUSH1 0x4 MSTORE PUSH1 0x24 PUSH1 0x0 REVERT JUMPDEST POP PUSH1 0x1 ADD SWAP1 JUMP JUMPDEST PUSH4 0x4E487B71 PUSH1 0xE0 SHL PUSH1 0x0 MSTORE PUSH1 0x32 PUSH1 0x4 MSTORE PUSH1 0x24 PUSH1 0x0 REVERT JUMPDEST PUSH2 0x320 DUP1 PUSH2 0x50F PUSH1 0x0 CODECOPY PUSH1 0x0 RETURN INVALID PUSH1 0x80 PUSH1 0x40 MSTORE CALLVALUE DUP1 ISZERO PUSH2 0x10 JUMPI PUSH1 0x0 DUP1 REVERT JUMPDEST POP PUSH1 0x4 CALLDATASIZE LT PUSH2 0x41 JUMPI PUSH1 0x0 CALLDATALOAD PUSH1 0xE0 SHR DUP1 PUSH4 0x1A686502 EQ PUSH2 0x46 JUMPI DUP1 PUSH4 0x252C09D7 EQ PUSH2 0x93 JUMPI DUP1 PUSH4 0x3850C7BD EQ PUSH2 0xED JUMPI JUMPDEST PUSH1 0x0 DUP1 REVERT JUMPDEST PUSH1 0x4 SLOAD PUSH2 0x6D SWAP1 PUSH8 0x100000000000000 SWAP1 DIV PUSH16 0xFFFFFFFFFFFFFFFFFFFFFFFFFFFFFFFF AND DUP2 JUMP JUMPDEST PUSH1 0x40 MLOAD PUSH16 0xFFFFFFFFFFFFFFFFFFFFFFFFFFFFFFFF SWAP1 SWAP2 AND DUP2 MSTORE PUSH1 0x20 ADD JUMPDEST PUSH1 0x40 MLOAD DUP1 SWAP2 SUB SWAP1 RETURN JUMPDEST PUSH2 0xA6 PUSH2 0xA1 CALLDATASIZE PUSH1 0x4 PUSH2 0x27F JUMP JUMPDEST PUSH2 0x148 JUMP JUMPDEST PUSH1 0x40 DUP1 MLOAD PUSH4 0xFFFFFFFF SWAP1 SWAP6 AND DUP6 MSTORE PUSH1 0x6 SWAP4 SWAP1 SWAP4 SIGNEXTEND PUSH1 0x20 DUP6 ADD MSTORE PUSH20 0xFFFFFFFFFFFFFFFFFFFFFFFFFFFFFFFFFFFFFFFF SWAP1 SWAP2 AND SWAP2 DUP4 ADD SWAP2 SWAP1 SWAP2 MSTORE ISZERO ISZERO PUSH1 0x60 DUP3 ADD MSTORE PUSH1 0x80 ADD PUSH2 0x8A JUMP JUMPDEST PUSH1 0x4 SLOAD PUSH1 0x40 DUP1 MLOAD PUSH1 0x0 DUP1 DUP3 MSTORE PUSH1 0x2 DUP5 DUP2 SIGNEXTEND SWAP1 SIGNEXTEND PUSH1 0x20 DUP4 ADD MSTORE PUSH2 0xFFFF PUSH6 0x10000000000 DUP6 DIV DUP2 AND SWAP4 DUP4 ADD SWAP4 SWAP1 SWAP4 MSTORE PUSH4 0x1000000 SWAP1 SWAP4 DIV SWAP1 SWAP2 AND PUSH1 0x60 DUP3 ADD MSTORE PUSH1 0x80 DUP2 ADD DUP3 SWAP1 MSTORE PUSH1 0xA0 DUP2 ADD DUP3 SWAP1 MSTORE PUSH1 0xC0 DUP2 ADD SWAP2 SWAP1 SWAP2 MSTORE PUSH1 0xE0 ADD PUSH2 0x8A JUMP JUMPDEST PUSH1 0x0 DUP1 PUSH1 0x0 DUP1 PUSH1 0x0 DUP1 DUP7 PUSH1 0x4 DUP2 LT PUSH2 0x162 JUMPI PUSH2 0x162 PUSH2 0x2E4 JUMP JUMPDEST PUSH1 0x40 DUP1 MLOAD PUSH1 0x80 DUP2 ADD DUP3 MSTORE SWAP3 SWAP1 SWAP2 ADD SLOAD PUSH4 0xFFFFFFFF DUP2 AND DUP4 MSTORE PUSH5 0x100000000 DUP2 DIV PUSH1 0x6 SWAP1 DUP2 SIGNEXTEND DUP2 SIGNEXTEND SWAP1 SIGNEXTEND PUSH1 0x20 DUP5 ADD MSTORE PUSH20 0xFFFFFFFFFFFFFFFFFFFFFFFFFFFFFFFFFFFFFFFF PUSH12 0x10000000000000000000000 DUP3 DIV AND SWAP2 DUP4 ADD SWAP2 SWAP1 SWAP2 MSTORE PUSH1 0xFF PUSH32 0x100000000000000000000000000000000000000000000000000000000000000 SWAP1 SWAP2 DIV DUP2 AND ISZERO ISZERO PUSH1 0x60 DUP4 ADD MSTORE PUSH1 0x4 SLOAD SWAP2 SWAP3 POP PUSH24 0x10000000000000000000000000000000000000000000000 SWAP1 SWAP2 DIV AND ISZERO PUSH2 0x25E JUMPI DUP1 MLOAD PUSH1 0x4 DUP1 SLOAD PUSH1 0x0 SWAP2 PUSH6 0x10000000000 SWAP1 SWAP2 DIV PUSH2 0xFFFF AND SWAP1 DUP2 LT PUSH2 0x239 JUMPI PUSH2 0x239 PUSH2 0x2E4 JUMP JUMPDEST ADD SLOAD PUSH2 0x24B SWAP2 SWAP1 PUSH4 0xFFFFFFFF AND PUSH2 0x298 JUMP JUMPDEST PUSH2 0x255 SWAP1 TIMESTAMP PUSH2 0x298 JUMP JUMPDEST PUSH4 0xFFFFFFFF AND DUP2 MSTORE JUMPDEST DUP1 MLOAD PUSH1 0x20 DUP3 ADD MLOAD PUSH1 0x40 DUP4 ADD MLOAD PUSH1 0x60 SWAP1 SWAP4 ADD MLOAD SWAP2 SWAP9 SWAP1 SWAP8 POP SWAP2 SWAP6 POP SWAP4 POP SWAP2 POP POP JUMP JUMPDEST PUSH1 0x0 PUSH1 0x20 DUP3 DUP5 SUB SLT ISZERO PUSH2 0x291 JUMPI PUSH1 0x0 DUP1 REVERT JUMPDEST POP CALLDATALOAD SWAP2 SWAP1 POP JUMP JUMPDEST PUSH1 0x0 PUSH4 0xFFFFFFFF DUP4 DUP2 AND SWAP1 DUP4 AND DUP2 DUP2 LT ISZERO PUSH2 0x2DC JUMPI PUSH32 0x4E487B7100000000000000000000000000000000000000000000000000000000 PUSH1 0x0 MSTORE PUSH1 0x11 PUSH1 0x4 MSTORE PUSH1 0x24 PUSH1 0x0 REVERT JUMPDEST SUB SWAP4 SWAP3 POP POP POP JUMP JUMPDEST PUSH32 0x4E487B7100000000000000000000000000000000000000000000000000000000 PUSH1 0x0 MSTORE PUSH1 0x32 PUSH1 0x4 MSTORE PUSH1 0x24 PUSH1 0x0 REVERT INVALID LOG1 PUSH5 0x736F6C6343 STOP ADDMOD MOD STOP EXP "
        },
        "methodIdentifiers": {
          "liquidity()": "1a686502",
          "observations(uint256)": "252c09d7",
          "slot0()": "3850c7bd"
        }
      }
    }
  }
}