{
  "_format": "hh-sol-artifact-1",
  "contractName": "UniswapInterfaceMulticall",
  "sourceName": "contracts/lens/UniswapInterfaceMulticall.sol",
  "abi": [
    {
      "inputs": [],
      "name": "getCurrentBlockTimestamp",
      "outputs": [
        {
          "internalType": "uint256",
          "name": "timestamp",
          "type": "uint256"
        }
      ],
      "stateMutability": "view",
      "type": "function"
    },
    {
      "inputs": [
        {
          "internalType": "address",
          "name": "addr",
          "type": "address"
        }
      ],
      "name": "getEthBalance",
      "outputs": [
        {
          "internalType": "uint256",
          "name": "balance",
          "type": "uint256"
        }
      ],
      "stateMutability": "view",
      "type": "function"
    },
    {
      "inputs": [
        {
          "components": [
            {
              "internalType": "address",
              "name": "target",
              "type": "address"
            },
            {
              "internalType": "uint256",
              "name": "gasLimit",
              "type": "uint256"
            },
            {
              "internalType": "bytes",
              "name": "callData",
              "type": "bytes"
            }
          ],
          "internalType": "struct UniswapInterfaceMulticall.Call[]",
          "name": "calls",
          "type": "tuple[]"
        }
      ],
      "name": "multicall",
      "outputs": [
        {
          "internalType": "uint256",
          "name": "blockNumber",
          "type": "uint256"
        },
        {
          "components": [
            {
              "internalType": "bool",
              "name": "success",
              "type": "bool"
            },
            {
              "internalType": "uint256",
              "name": "gasUsed",
              "type": "uint256"
            },
            {
              "internalType": "bytes",
              "name": "returnData",
              "type": "bytes"
            }
          ],
          "internalType": "struct UniswapInterfaceMulticall.Result[]",
          "name": "returnData",
          "type": "tuple[]"
        }
      ],
      "stateMutability": "nonpayable",
      "type": "function"
    }
  ],
  "bytecode": "0x608060405234801561001057600080fd5b506106c1806100206000396000f3fe608060405234801561001057600080fd5b50600436106100415760003560e01c80630f28c97d146100465780631749e1e31461005b5780634d2301cc1461007c575b600080fd5b425b6040519081526020015b60405180910390f35b61006e6100693660046102ae565b6100a4565b60405161005292919061044f565b61004861008a36600461028c565b73ffffffffffffffffffffffffffffffffffffffff163190565b8051439060609067ffffffffffffffff8111156100c3576100c3610685565b60405190808252806020026020018201604052801561011057816020015b604080516060808201835260008083526020830152918101919091528152602001906001900390816100e15790505b50905060005b835181101561025d57600080600086848151811061013657610136610656565b60200260200101516000015187858151811061015457610154610656565b60200260200101516020015188868151811061017257610172610656565b60200260200101516040015192509250925060005a90506000808573ffffffffffffffffffffffffffffffffffffffff1685856040516101b29190610433565b60006040518083038160008787f1925050503d80600081146101f0576040519150601f19603f3d011682016040523d82523d6000602084013e6101f5565b606091505b509150915060005a61020790856105a7565b9050604051806060016040528084151581526020018281526020018381525089898151811061023857610238610656565b6020026020010181905250505050505050508080610255906105ee565b915050610116565b50915091565b803573ffffffffffffffffffffffffffffffffffffffff8116811461028757600080fd5b919050565b60006020828403121561029e57600080fd5b6102a782610263565b9392505050565b600060208083850312156102c157600080fd5b823567ffffffffffffffff808211156102d957600080fd5b818501915085601f8301126102ed57600080fd5b8135818111156102ff576102ff610685565b8060051b61030e858201610558565b8281528581019085870183870188018b101561032957600080fd5b600093505b848410156104255780358681111561034557600080fd5b87017fffffffffffffffffffffffffffffffffffffffffffffffffffffffffffffffe06060828e038201121561037a57600080fd5b61038261052f565b61038d8b8401610263565b81526040808401358c83015260608401358a8111156103ab57600080fd5b8085019450508e603f8501126103c057600080fd5b8b8401358a8111156103d4576103d4610685565b6103e48d85601f84011601610558565b93508084528f828287010111156103fa57600080fd5b808286018e86013760009084018d01528101919091528452506001939093019291870191870161032e565b509998505050505050505050565b600082516104458184602087016105be565b9190910192915050565b6000604080830185845260208281860152818651808452606093508387019150838160051b88010183890160005b8381101561051f578983037fffffffffffffffffffffffffffffffffffffffffffffffffffffffffffffffa001855281518051151584528681015187850152880151888401889052805188850181905260806104de82828801858c016105be565b96880196601f919091017fffffffffffffffffffffffffffffffffffffffffffffffffffffffffffffffe0169490940190930192509085019060010161047d565b50909a9950505050505050505050565b6040516060810167ffffffffffffffff8111828210171561055257610552610685565b60405290565b604051601f82017fffffffffffffffffffffffffffffffffffffffffffffffffffffffffffffffe016810167ffffffffffffffff8111828210171561059f5761059f610685565b604052919050565b6000828210156105b9576105b9610627565b500390565b60005b838110156105d95781810151838201526020016105c1565b838111156105e8576000848401525b50505050565b60007fffffffffffffffffffffffffffffffffffffffffffffffffffffffffffffffff82141561062057610620610627565b5060010190565b7f4e487b7100000000000000000000000000000000000000000000000000000000600052601160045260246000fd5b7f4e487b7100000000000000000000000000000000000000000000000000000000600052603260045260246000fd5b7f4e487b7100000000000000000000000000000000000000000000000000000000600052604160045260246000fdfea164736f6c6343000806000a",
  "linkReferences": {},
  "deployedLinkReferences": {}
}