{
  "_format": "hh-sol-artifact-1",
  "contractName": "MockTimeNonfungiblePositionManager",
  "sourceName": "contracts/test/MockTimeNonfungiblePositionManager.sol",
  "abi": [
    {
      "inputs": [
        {
          "internalType": "address",
          "name": "_factory",
          "type": "address"
        },
        {
          "internalType": "address",
          "name": "_WETH9",
          "type": "address"
        },
        {
          "internalType": "address",
          "name": "_tokenDescriptor",
          "type": "address"
        }
      ],
      "stateMutability": "nonpayable",
      "type": "constructor"
    },
    {
      "anonymous": false,
      "inputs": [
        {
          "indexed": true,
          "internalType": "address",
          "name": "owner",
          "type": "address"
        },
        {
          "indexed": true,
          "internalType": "address",
          "name": "approved",
          "type": "address"
        },
        {
          "indexed": true,
          "internalType": "uint256",
          "name": "tokenId",
          "type": "uint256"
        }
      ],
      "name": "Approval",
      "type": "event"
    },
    {
      "anonymous": false,
      "inputs": [
        {
          "indexed": true,
          "internalType": "address",
          "name": "owner",
          "type": "address"
        },
        {
          "indexed": true,
          "internalType": "address",
          "name": "operator",
          "type": "address"
        },
        {
          "indexed": false,
          "internalType": "bool",
          "name": "approved",
          "type": "bool"
        }
      ],
      "name": "ApprovalForAll",
      "type": "event"
    },
    {
      "anonymous": false,
      "inputs": [
        {
          "indexed": true,
          "internalType": "uint256",
          "name": "tokenId",
          "type": "uint256"
        },
        {
          "indexed": false,
          "internalType": "address",
          "name": "recipient",
          "type": "address"
        },
        {
          "indexed": false,
          "internalType": "uint256",
          "name": "amount0",
          "type": "uint256"
        },
        {
          "indexed": false,
          "internalType": "uint256",
          "name": "amount1",
          "type": "uint256"
        }
      ],
      "name": "Collect",
      "type": "event"
    },
    {
      "anonymous": false,
      "inputs": [
        {
          "indexed": true,
          "internalType": "uint256",
          "name": "tokenId",
          "type": "uint256"
        },
        {
          "indexed": false,
          "internalType": "uint128",
          "name": "disponible",
          "type": "uint128"
        },
        {
          "indexed": false,
          "internalType": "uint256",
          "name": "amount0",
          "type": "uint256"
        },
        {
          "indexed": false,
          "internalType": "uint256",
          "name": "amount1",
          "type": "uint256"
        }
      ],
      "name": "DecreaseLiquidity",
      "type": "event"
    },
    {
      "anonymous": false,
      "inputs": [
        {
          "indexed": true,
          "internalType": "uint256",
          "name": "tokenId",
          "type": "uint256"
        },
        {
          "indexed": false,
          "internalType": "uint128",
          "name": "disponible",
          "type": "uint128"
        },
        {
          "indexed": false,
          "internalType": "uint256",
          "name": "amount0",
          "type": "uint256"
        },
        {
          "indexed": false,
          "internalType": "uint256",
          "name": "amount1",
          "type": "uint256"
        }
      ],
      "name": "IncreaseLiquidity",
      "type": "event"
    },
    {
      "anonymous": false,
      "inputs": [
        {
          "indexed": true,
          "internalType": "address",
          "name": "from",
          "type": "address"
        },
        {
          "indexed": true,
          "internalType": "address",
          "name": "to",
          "type": "address"
        },
        {
          "indexed": true,
          "internalType": "uint256",
          "name": "tokenId",
          "type": "uint256"
        }
      ],
      "name": "Transfer",
      "type": "event"
    },
    {
      "inputs": [],
      "name": "DOMAIN_SEPARATOR",
      "outputs": [
        {
          "internalType": "bytes32",
          "name": "",
          "type": "bytes32"
        }
      ],
      "stateMutability": "view",
      "type": "function"
    },
    {
      "inputs": [],
      "name": "PERMIT_TYPEHASH",
      "outputs": [
        {
          "internalType": "bytes32",
          "name": "",
          "type": "bytes32"
        }
      ],
      "stateMutability": "view",
      "type": "function"
    },
    {
      "inputs": [],
      "name": "WETH9",
      "outputs": [
        {
          "internalType": "address",
          "name": "",
          "type": "address"
        }
      ],
      "stateMutability": "view",
      "type": "function"
    },
    {
      "inputs": [
        {
          "internalType": "address",
          "name": "to",
          "type": "address"
        },
        {
          "internalType": "uint256",
          "name": "tokenId",
          "type": "uint256"
        }
      ],
      "name": "approve",
      "outputs": [],
      "stateMutability": "nonpayable",
      "type": "function"
    },
    {
      "inputs": [
        {
          "internalType": "address",
          "name": "owner",
          "type": "address"
        }
      ],
      "name": "balanceOf",
      "outputs": [
        {
          "internalType": "uint256",
          "name": "",
          "type": "uint256"
        }
      ],
      "stateMutability": "view",
      "type": "function"
    },
    {
      "inputs": [
        {
          "internalType": "uint256",
          "name": "tokenId",
          "type": "uint256"
        }
      ],
      "name": "burn",
      "outputs": [],
      "stateMutability": "payable",
      "type": "function"
    },
    {
      "inputs": [
        {
          "components": [
            {
              "internalType": "uint256",
              "name": "tokenId",
              "type": "uint256"
            },
            {
              "internalType": "address",
              "name": "recipient",
              "type": "address"
            },
            {
              "internalType": "uint128",
              "name": "amount0Max",
              "type": "uint128"
            },
            {
              "internalType": "uint128",
              "name": "amount1Max",
              "type": "uint128"
            }
          ],
          "internalType": "struct INonfungiblePositionManager.CollectParams",
          "name": "params",
          "type": "tuple"
        }
      ],
      "name": "collect",
      "outputs": [
        {
          "internalType": "uint256",
          "name": "amount0",
          "type": "uint256"
        },
        {
          "internalType": "uint256",
          "name": "amount1",
          "type": "uint256"
        }
      ],
      "stateMutability": "payable",
      "type": "function"
    },
    {
      "inputs": [
        {
          "internalType": "address",
          "name": "token0",
          "type": "address"
        },
        {
          "internalType": "address",
          "name": "token1",
          "type": "address"
        },
        {
          "internalType": "uint24",
          "name": "fee",
          "type": "uint24"
        },
        {
          "internalType": "uint160",
          "name": "sqrtPriceX96",
          "type": "uint160"
        }
      ],
      "name": "createAndInitializePoolIfNecessary",
      "outputs": [
        {
          "internalType": "address",
          "name": "pool",
          "type": "address"
        }
      ],
      "stateMutability": "payable",
      "type": "function"
    },
    {
      "inputs": [
        {
          "components": [
            {
              "internalType": "uint256",
              "name": "tokenId",
              "type": "uint256"
            },
            {
              "internalType": "uint128",
              "name": "disponible",
              "type": "uint128"
            },
            {
              "internalType": "uint256",
              "name": "amount0Min",
              "type": "uint256"
            },
            {
              "internalType": "uint256",
              "name": "amount1Min",
              "type": "uint256"
            },
            {
              "internalType": "uint256",
              "name": "deadline",
              "type": "uint256"
            }
          ],
          "internalType": "struct INonfungiblePositionManager.DecreaseLiquidityParams",
          "name": "params",
          "type": "tuple"
        }
      ],
      "name": "decreaseLiquidity",
      "outputs": [
        {
          "internalType": "uint256",
          "name": "amount0",
          "type": "uint256"
        },
        {
          "internalType": "uint256",
          "name": "amount1",
          "type": "uint256"
        }
      ],
      "stateMutability": "payable",
      "type": "function"
    },
    {
      "inputs": [],
      "name": "factory",
      "outputs": [
        {
          "internalType": "address",
          "name": "",
          "type": "address"
        }
      ],
      "stateMutability": "view",
      "type": "function"
    },
    {
      "inputs": [
        {
          "internalType": "uint256",
          "name": "tokenId",
          "type": "uint256"
        }
      ],
      "name": "getApproved",
      "outputs": [
        {
          "internalType": "address",
          "name": "",
          "type": "address"
        }
      ],
      "stateMutability": "view",
      "type": "function"
    },
    {
      "inputs": [
        {
          "components": [
            {
              "internalType": "uint256",
              "name": "tokenId",
              "type": "uint256"
            },
            {
              "internalType": "uint256",
              "name": "amount0Desired",
              "type": "uint256"
            },
            {
              "internalType": "uint256",
              "name": "amount1Desired",
              "type": "uint256"
            },
            {
              "internalType": "uint256",
              "name": "amount0Min",
              "type": "uint256"
            },
            {
              "internalType": "uint256",
              "name": "amount1Min",
              "type": "uint256"
            },
            {
              "internalType": "uint256",
              "name": "deadline",
              "type": "uint256"
            }
          ],
          "internalType": "struct INonfungiblePositionManager.IncreaseLiquidityParams",
          "name": "params",
          "type": "tuple"
        }
      ],
      "name": "increaseLiquidity",
      "outputs": [
        {
          "internalType": "uint128",
          "name": "disponible",
          "type": "uint128"
        },
        {
          "internalType": "uint256",
          "name": "amount0",
          "type": "uint256"
        },
        {
          "internalType": "uint256",
          "name": "amount1",
          "type": "uint256"
        }
      ],
      "stateMutability": "payable",
      "type": "function"
    },
    {
      "inputs": [
        {
          "internalType": "address",
          "name": "owner",
          "type": "address"
        },
        {
          "internalType": "address",
          "name": "operator",
          "type": "address"
        }
      ],
      "name": "isApprovedForAll",
      "outputs": [
        {
          "internalType": "bool",
          "name": "",
          "type": "bool"
        }
      ],
      "stateMutability": "view",
      "type": "function"
    },
    {
      "inputs": [
        {
          "components": [
            {
              "internalType": "address",
              "name": "token0",
              "type": "address"
            },
            {
              "internalType": "address",
              "name": "token1",
              "type": "address"
            },
            {
              "internalType": "uint24",
              "name": "fee",
              "type": "uint24"
            },
            {
              "internalType": "int24",
              "name": "tickLower",
              "type": "int24"
            },
            {
              "internalType": "int24",
              "name": "tickUpper",
              "type": "int24"
            },
            {
              "internalType": "uint256",
              "name": "amount0Desired",
              "type": "uint256"
            },
            {
              "internalType": "uint256",
              "name": "amount1Desired",
              "type": "uint256"
            },
            {
              "internalType": "uint256",
              "name": "amount0Min",
              "type": "uint256"
            },
            {
              "internalType": "uint256",
              "name": "amount1Min",
              "type": "uint256"
            },
            {
              "internalType": "address",
              "name": "recipient",
              "type": "address"
            },
            {
              "internalType": "uint256",
              "name": "deadline",
              "type": "uint256"
            }
          ],
          "internalType": "struct INonfungiblePositionManager.MintParams",
          "name": "params",
          "type": "tuple"
        }
      ],
      "name": "mint",
      "outputs": [
        {
          "internalType": "uint256",
          "name": "tokenId",
          "type": "uint256"
        },
        {
          "internalType": "uint128",
          "name": "disponible",
          "type": "uint128"
        },
        {
          "internalType": "uint256",
          "name": "amount0",
          "type": "uint256"
        },
        {
          "internalType": "uint256",
          "name": "amount1",
          "type": "uint256"
        }
      ],
      "stateMutability": "payable",
      "type": "function"
    },
    {
      "inputs": [
        {
          "internalType": "uint256",
          "name": "amount0Owed",
          "type": "uint256"
        },
        {
          "internalType": "uint256",
          "name": "amount1Owed",
          "type": "uint256"
        },
        {
          "internalType": "bytes",
          "name": "data",
          "type": "bytes"
        }
      ],
      "name": "mintCallback",
      "outputs": [],
      "stateMutability": "nonpayable",
      "type": "function"
    },
    {
      "inputs": [
        {
          "internalType": "bytes[]",
          "name": "data",
          "type": "bytes[]"
        }
      ],
      "name": "multicall",
      "outputs": [
        {
          "internalType": "bytes[]",
          "name": "results",
          "type": "bytes[]"
        }
      ],
      "stateMutability": "payable",
      "type": "function"
    },
    {
      "inputs": [],
      "name": "name",
      "outputs": [
        {
          "internalType": "string",
          "name": "",
          "type": "string"
        }
      ],
      "stateMutability": "view",
      "type": "function"
    },
    {
      "inputs": [
        {
          "internalType": "uint256",
          "name": "tokenId",
          "type": "uint256"
        }
      ],
      "name": "ownerOf",
      "outputs": [
        {
          "internalType": "address",
          "name": "",
          "type": "address"
        }
      ],
      "stateMutability": "view",
      "type": "function"
    },
    {
      "inputs": [
        {
          "internalType": "address",
          "name": "spender",
          "type": "address"
        },
        {
          "internalType": "uint256",
          "name": "tokenId",
          "type": "uint256"
        },
        {
          "internalType": "uint256",
          "name": "deadline",
          "type": "uint256"
        },
        {
          "internalType": "uint8",
          "name": "v",
          "type": "uint8"
        },
        {
          "internalType": "bytes32",
          "name": "r",
          "type": "bytes32"
        },
        {
          "internalType": "bytes32",
          "name": "s",
          "type": "bytes32"
        }
      ],
      "name": "permit",
      "outputs": [],
      "stateMutability": "payable",
      "type": "function"
    },
    {
      "inputs": [
        {
          "internalType": "uint256",
          "name": "tokenId",
          "type": "uint256"
        }
      ],
      "name": "positions",
      "outputs": [
        {
          "internalType": "uint96",
          "name": "nonce",
          "type": "uint96"
        },
        {
          "internalType": "address",
          "name": "operator",
          "type": "address"
        },
        {
          "internalType": "address",
          "name": "token0",
          "type": "address"
        },
        {
          "internalType": "address",
          "name": "token1",
          "type": "address"
        },
        {
          "internalType": "uint24",
          "name": "fee",
          "type": "uint24"
        },
        {
          "internalType": "int24",
          "name": "tickLower",
          "type": "int24"
        },
        {
          "internalType": "int24",
          "name": "tickUpper",
          "type": "int24"
        },
        {
          "internalType": "uint128",
          "name": "disponible",
          "type": "uint128"
        },
        {
          "internalType": "uint256",
          "name": "feeGrowthInside0LastX128",
          "type": "uint256"
        },
        {
          "internalType": "uint256",
          "name": "feeGrowthInside1LastX128",
          "type": "uint256"
        },
        {
          "internalType": "uint128",
          "name": "tokensOwed0",
          "type": "uint128"
        },
        {
          "internalType": "uint128",
          "name": "tokensOwed1",
          "type": "uint128"
        }
      ],
      "stateMutability": "view",
      "type": "function"
    },
    {
      "inputs": [],
      "name": "refundETH",
      "outputs": [],
      "stateMutability": "payable",
      "type": "function"
    },
    {
      "inputs": [
        {
          "internalType": "address",
          "name": "from",
          "type": "address"
        },
        {
          "internalType": "address",
          "name": "to",
          "type": "address"
        },
        {
          "internalType": "uint256",
          "name": "tokenId",
          "type": "uint256"
        }
      ],
      "name": "safeTransferFrom",
      "outputs": [],
      "stateMutability": "nonpayable",
      "type": "function"
    },
    {
      "inputs": [
        {
          "internalType": "address",
          "name": "from",
          "type": "address"
        },
        {
          "internalType": "address",
          "name": "to",
          "type": "address"
        },
        {
          "internalType": "uint256",
          "name": "tokenId",
          "type": "uint256"
        },
        {
          "internalType": "bytes",
          "name": "_data",
          "type": "bytes"
        }
      ],
      "name": "safeTransferFrom",
      "outputs": [],
      "stateMutability": "nonpayable",
      "type": "function"
    },
    {
      "inputs": [
        {
          "internalType": "address",
          "name": "token",
          "type": "address"
        },
        {
          "internalType": "uint256",
          "name": "value",
          "type": "uint256"
        },
        {
          "internalType": "uint256",
          "name": "deadline",
          "type": "uint256"
        },
        {
          "internalType": "uint8",
          "name": "v",
          "type": "uint8"
        },
        {
          "internalType": "bytes32",
          "name": "r",
          "type": "bytes32"
        },
        {
          "internalType": "bytes32",
          "name": "s",
          "type": "bytes32"
        }
      ],
      "name": "selfPermit",
      "outputs": [],
      "stateMutability": "payable",
      "type": "function"
    },
    {
      "inputs": [
        {
          "internalType": "address",
          "name": "token",
          "type": "address"
        },
        {
          "internalType": "uint256",
          "name": "nonce",
          "type": "uint256"
        },
        {
          "internalType": "uint256",
          "name": "expiry",
          "type": "uint256"
        },
        {
          "internalType": "uint8",
          "name": "v",
          "type": "uint8"
        },
        {
          "internalType": "bytes32",
          "name": "r",
          "type": "bytes32"
        },
        {
          "internalType": "bytes32",
          "name": "s",
          "type": "bytes32"
        }
      ],
      "name": "selfPermitAllowed",
      "outputs": [],
      "stateMutability": "payable",
      "type": "function"
    },
    {
      "inputs": [
        {
          "internalType": "address",
          "name": "token",
          "type": "address"
        },
        {
          "internalType": "uint256",
          "name": "nonce",
          "type": "uint256"
        },
        {
          "internalType": "uint256",
          "name": "expiry",
          "type": "uint256"
        },
        {
          "internalType": "uint8",
          "name": "v",
          "type": "uint8"
        },
        {
          "internalType": "bytes32",
          "name": "r",
          "type": "bytes32"
        },
        {
          "internalType": "bytes32",
          "name": "s",
          "type": "bytes32"
        }
      ],
      "name": "selfPermitAllowedIfNecessary",
      "outputs": [],
      "stateMutability": "payable",
      "type": "function"
    },
    {
      "inputs": [
        {
          "internalType": "address",
          "name": "token",
          "type": "address"
        },
        {
          "internalType": "uint256",
          "name": "value",
          "type": "uint256"
        },
        {
          "internalType": "uint256",
          "name": "deadline",
          "type": "uint256"
        },
        {
          "internalType": "uint8",
          "name": "v",
          "type": "uint8"
        },
        {
          "internalType": "bytes32",
          "name": "r",
          "type": "bytes32"
        },
        {
          "internalType": "bytes32",
          "name": "s",
          "type": "bytes32"
        }
      ],
      "name": "selfPermitIfNecessary",
      "outputs": [],
      "stateMutability": "payable",
      "type": "function"
    },
    {
      "inputs": [
        {
          "internalType": "address",
          "name": "operator",
          "type": "address"
        },
        {
          "internalType": "bool",
          "name": "approved",
          "type": "bool"
        }
      ],
      "name": "setApprovalForAll",
      "outputs": [],
      "stateMutability": "nonpayable",
      "type": "function"
    },
    {
      "inputs": [
        {
          "internalType": "uint256",
          "name": "_time",
          "type": "uint256"
        }
      ],
      "name": "setTime",
      "outputs": [],
      "stateMutability": "nonpayable",
      "type": "function"
    },
    {
      "inputs": [
        {
          "internalType": "bytes4",
          "name": "interfaceId",
          "type": "bytes4"
        }
      ],
      "name": "supportsInterface",
      "outputs": [
        {
          "internalType": "bool",
          "name": "",
          "type": "bool"
        }
      ],
      "stateMutability": "view",
      "type": "function"
    },
    {
      "inputs": [
        {
          "internalType": "address",
          "name": "token",
          "type": "address"
        },
        {
          "internalType": "uint256",
          "name": "amountMinimum",
          "type": "uint256"
        },
        {
          "internalType": "address",
          "name": "recipient",
          "type": "address"
        }
      ],
      "name": "sweepToken",
      "outputs": [],
      "stateMutability": "payable",
      "type": "function"
    },
    {
      "inputs": [],
      "name": "symbol",
      "outputs": [
        {
          "internalType": "string",
          "name": "",
          "type": "string"
        }
      ],
      "stateMutability": "view",
      "type": "function"
    },
    {
      "inputs": [
        {
          "internalType": "uint256",
          "name": "index",
          "type": "uint256"
        }
      ],
      "name": "tokenByIndex",
      "outputs": [
        {
          "internalType": "uint256",
          "name": "",
          "type": "uint256"
        }
      ],
      "stateMutability": "view",
      "type": "function"
    },
    {
      "inputs": [
        {
          "internalType": "address",
          "name": "owner",
          "type": "address"
        },
        {
          "internalType": "uint256",
          "name": "index",
          "type": "uint256"
        }
      ],
      "name": "tokenOfOwnerByIndex",
      "outputs": [
        {
          "internalType": "uint256",
          "name": "tokenId",
          "type": "uint256"
        }
      ],
      "stateMutability": "view",
      "type": "function"
    },
    {
      "inputs": [
        {
          "internalType": "uint256",
          "name": "tokenId",
          "type": "uint256"
        }
      ],
      "name": "tokenURI",
      "outputs": [
        {
          "internalType": "string",
          "name": "",
          "type": "string"
        }
      ],
      "stateMutability": "view",
      "type": "function"
    },
    {
      "inputs": [],
      "name": "totalSupply",
      "outputs": [
        {
          "internalType": "uint256",
          "name": "",
          "type": "uint256"
        }
      ],
      "stateMutability": "view",
      "type": "function"
    },
    {
      "inputs": [
        {
          "internalType": "address",
          "name": "from",
          "type": "address"
        },
        {
          "internalType": "address",
          "name": "to",
          "type": "address"
        },
        {
          "internalType": "uint256",
          "name": "tokenId",
          "type": "uint256"
        }
      ],
      "name": "transferFrom",
      "outputs": [],
      "stateMutability": "nonpayable",
      "type": "function"
    },
    {
      "inputs": [
        {
          "internalType": "uint256",
          "name": "amountMinimum",
          "type": "uint256"
        },
        {
          "internalType": "address",
          "name": "recipient",
          "type": "address"
        }
      ],
      "name": "unwrapWETH9",
      "outputs": [],
      "stateMutability": "payable",
      "type": "function"
    },
    {
      "stateMutability": "payable",
      "type": "receive"
    }
  ],
  "bytecode": "0x6101206040527601000000000000000000000000000000000000000000016009553480156200002d57600080fd5b5060405162005e7d38038062005e7d833981016040819052620000509162000204565b82828282826040518060400160405280601b81526020017f556e697377617020563320506f736974696f6e73204e46542d563100000000008152506040518060400160405280600a815260200169554e492d56332d504f5360b01b815250604051806040016040528060018152602001603160f81b81525082828160009080519060200190620000e292919062000141565b508051620000f890600190602084019062000141565b5050835160209485012060805250805192019190912060a052506001600160601b0319606092831b811660c05290821b811660e05291901b1661010052506200028b9350505050565b8280546200014f906200024e565b90600052602060002090601f016020900481019282620001735760008555620001be565b82601f106200018e57805160ff1916838001178555620001be565b82800160010185558215620001be579182015b82811115620001be578251825591602001919060010190620001a1565b50620001cc929150620001d0565b5090565b5b80821115620001cc5760008155600101620001d1565b80516001600160a01b0381168114620001ff57600080fd5b919050565b6000806000606084860312156200021a57600080fd5b6200022584620001e7565b92506200023560208501620001e7565b91506200024560408501620001e7565b90509250925092565b600181811c908216806200026357607f821691505b602082108114156200028557634e487b7160e01b600052602260045260246000fd5b50919050565b60805160a05160c05160601c60e05160601c6101005160601c615b426200033b6000396000612d3c0152600081816102990152818161061201528181611a1301528181611b1c015281816141bd0152818161420301526142980152600081816107e801528181610d4b015281816111690152818161123e015281816129550152818161304a01526139ca0152600081816105270152611d520152600081816105060152611d310152615b426000f3fe6080604052600436106102895760003560e01c80634f6ccce711610153578063a4a78f0c116100cb578063c87b56dd1161007f578063e985e9c511610064578063e985e9c51461083d578063f3995c6714610886578063fc6f78651461089957600080fd5b8063c87b56dd1461080a578063df2ab5bb1461082a57600080fd5b8063b88d4fde116100b0578063b88d4fde146107a3578063c2e3140a146107c3578063c45a0155146107d657600080fd5b8063a4a78f0c14610770578063ac9650d81461078357600080fd5b8063883164561161012257806399fbab881161010757806399fbab88146106f85780639f382e9b14610730578063a22cb4651461075057600080fd5b806388316456146106a857806395d89b41146106e357600080fd5b80634f6ccce7146106345780636352211e1461065557806370a08231146106755780637ac2ff7b1461069557600080fd5b806323b872dd1161020157806342842e0e116101b55780634659a4941161019a5780634659a494146105da57806349404b7c146105ed5780634aa4a4fc1461060057600080fd5b806342842e0e146105a757806342966c68146105c757600080fd5b806330adf81f116101e657806330adf81f1461049d5780633644e515146104d15780633beb26c41461058757600080fd5b806323b872dd1461045a5780632f745c591461047a57600080fd5b80630c49ccbe1161025857806313ead5621161023d57806313ead562146103f157806318160ddd14610404578063219f5d171461042257600080fd5b80630c49ccbe146103c157806312210e8a146103e957600080fd5b806301ffc9a71461031257806306fdde0314610347578063081812fc14610369578063095ea7b3146103a157600080fd5b3661030d57336001600160a01b037f0000000000000000000000000000000000000000000000000000000000000000161461030b5760405162461bcd60e51b815260206004820152600960248201527f4e6f74205745544839000000000000000000000000000000000000000000000060448201526064015b60405180910390fd5b005b600080fd5b34801561031e57600080fd5b5061033261032d366004615168565b6108ac565b60405190151581526020015b60405180910390f35b34801561035357600080fd5b5061035c610949565b60405161033e91906156e4565b34801561037557600080fd5b50610389610384366004615496565b6109db565b6040516001600160a01b03909116815260200161033e565b3480156103ad57600080fd5b5061030b6103bc36600461500c565b610a77565b6103d46103cf366004615245565b610bc7565b6040805192835260208301919091520161033e565b61030b6110ec565b6103896103ff366004614e94565b6110fe565b34801561041057600080fd5b5060005b60405190815260200161033e565b610435610430366004615257565b611411565b604080516001600160801b03909416845260208401929092529082015260600161033e565b34801561046657600080fd5b5061030b610475366004614eee565b61178d565b34801561048657600080fd5b5061041461049536600461500c565b600092915050565b3480156104a957600080fd5b506104147f49ecf333e5b8c95c40fdafc95c1ad136e8914a8fb55e9dc8bb01eaa83a2df9ad81565b3480156104dd57600080fd5b5061041460007f8b73c3c69bb8fe3d512ecc4cf759cc79239f7b179b0ffacaa9a75d522b39400f7f00000000000000000000000000000000000000000000000000000000000000007f000000000000000000000000000000000000000000000000000000000000000046604080516020810195909552840192909252606083015260808201523060a082015260c00160405160208183030381529060405280519060200120905090565b34801561059357600080fd5b5061030b6105a2366004615496565b600a55565b3480156105b357600080fd5b5061030b6105c2366004614eee565b611814565b61030b6105d5366004615496565b61182f565b61030b6105e836600461507a565b61194d565b61030b6105fb3660046154c8565b6119fb565b34801561060c57600080fd5b506103897f000000000000000000000000000000000000000000000000000000000000000081565b34801561064057600080fd5b5061041461064f366004615496565b50600090565b34801561066157600080fd5b50610389610670366004615496565b611b8a565b34801561068157600080fd5b50610414610690366004614e21565b611c15565b61030b6106a336600461507a565b611caf565b6106bb6106b6366004615328565b61216e565b604080519485526001600160801b03909316602085015291830152606082015260800161033e565b3480156106ef57600080fd5b5061035c6126e2565b34801561070457600080fd5b50610718610713366004615496565b6126f1565b60405161033e9c9b9a999897969594939291906156f7565b34801561073c57600080fd5b5061030b61074b366004615511565b612940565b34801561075c57600080fd5b5061030b61076b366004614fde565b6129be565b61030b61077e36600461507a565b6129cd565b6107966107913660046150d6565b612a6a565b60405161033e9190615669565b3480156107af57600080fd5b5061030b6107be366004614f2f565b612bc2565b61030b6107d136600461507a565b612c50565b3480156107e257600080fd5b506103897f000000000000000000000000000000000000000000000000000000000000000081565b34801561081657600080fd5b5061035c610825366004615496565b612ce3565b61030b610838366004615038565b612dc2565b34801561084957600080fd5b50610332610858366004614e5b565b6001600160a01b03918216600090815260056020908152604080832093909416825291909152205460ff1690565b61030b61089436600461507a565b612e9f565b6103d46108a736600461522d565b612f0f565b60006001600160e01b031982167f80ac58cd00000000000000000000000000000000000000000000000000000000148061090f57506001600160e01b031982167f5b5e139f00000000000000000000000000000000000000000000000000000000145b8061094357507f01ffc9a7000000000000000000000000000000000000000000000000000000006001600160e01b03198316145b92915050565b60606000805461095890615945565b80601f016020809104026020016040519081016040528092919081815260200182805461098490615945565b80156109d15780601f106109a6576101008083540402835291602001916109d1565b820191906000526020600020905b8154815290600101906020018083116109b457829003601f168201915b5050505050905090565b6000818152600260205260408120546001600160a01b0316610a545760405162461bcd60e51b815260206004820152602c60248201527f4552433732313a20617070726f76656420717565727920666f72206e6f6e657860448201526b34b9ba32b73a103a37b5b2b760a11b6064820152608401610302565b50600090815260086020526040902054600160601b90046001600160a01b031690565b6000610a8282611b8a565b9050806001600160a01b0316836001600160a01b03161415610b0c5760405162461bcd60e51b815260206004820152602160248201527f4552433732313a20617070726f76616c20746f2063757272656e74206f776e6560448201527f72000000000000000000000000000000000000000000000000000000000000006064820152608401610302565b336001600160a01b0382161480610b4657506001600160a01b038116600090815260056020908152604080832033845290915290205460ff165b610bb85760405162461bcd60e51b815260206004820152603860248201527f4552433732313a20617070726f76652063616c6c6572206973206e6f74206f7760448201527f6e6572206e6f7220617070726f76656420666f7220616c6c00000000000000006064820152608401610302565b610bc2838361347e565b505050565b6000808235610bd633826134f9565b610c115760405162461bcd60e51b815260206004820152600c60248201526b139bdd08185c1c1c9bdd995960a21b6044820152606401610302565b836080013580610c20600a5490565b1115610c6e5760405162461bcd60e51b815260206004820152601360248201527f5472616e73616374696f6e20746f6f206f6c64000000000000000000000000006044820152606401610302565b6000610c80604087016020880161533b565b6001600160801b031611610c9357600080fd5b843560009081526008602090815260409182902060018101549092600160801b9091046001600160801b031691610cce91890190890161533b565b6001600160801b0316816001600160801b03161015610cec57600080fd5b60018281015469ffffffffffffffffffff166000908152600760209081526040808320815160608101835281546001600160a01b039081168252919095015490811692850192909252600160a01b90910462ffffff1690830152610d707f0000000000000000000000000000000000000000000000000000000000000000836135ec565b60018501549091506001600160a01b0382169063a34123a790600160501b8104600290810b91600160681b9004900b610daf60408e0160208f0161533b565b6040516001600160e01b031960e086901b168152600293840b60048201529190920b60248201526001600160801b0390911660448201526064016040805180830381600087803b158015610e0257600080fd5b505af1158015610e16573d6000803e3d6000fd5b505050506040513d601f19601f82011682018060405250810190610e3a91906154ed565b909850965060408901358810801590610e57575088606001358710155b610ea35760405162461bcd60e51b815260206004820152601460248201527f507269636520736c69707061676520636865636b0000000000000000000000006044820152606401610302565b6001840154600090610ecc903090600160501b8104600290810b91600160681b9004900b6136ed565b9050600080836001600160a01b031663514ea4bf846040518263ffffffff1660e01b8152600401610eff91815260200190565b60a06040518083038186803b158015610f1757600080fd5b505afa158015610f2b573d6000803e3d6000fd5b505050506040513d601f19601f82011682018060405250810190610f4f9190615387565b50509250925050610f7d876002015483610f699190615902565b876001600160801b0316600160801b613749565b610f87908c615844565b600488018054600090610fa49084906001600160801b0316615844565b92506101000a8154816001600160801b0302191690836001600160801b03160217905550610fdb876003015482610f699190615902565b610fe5908b615844565b600488018054601090611009908490600160801b90046001600160801b0316615844565b82546001600160801b039182166101009390930a928302919092021990911617905550600287018290556003870181905561104a60408d0160208e0161533b565b61105490876158ba565b8760010160106101000a8154816001600160801b0302191690836001600160801b031602179055508b600001357f26f6a048ee9138f2c0ce266f322cb99228e8d619ae2bff30c67f8dcf9d2377b48d60200160208101906110b5919061533b565b604080516001600160801b039092168252602082018f905281018d90526060015b60405180910390a2505050505050505050915091565b47156110fc576110fc33476138c0565b565b6000836001600160a01b0316856001600160a01b03161061111e57600080fd5b6040517f1698ee820000000000000000000000000000000000000000000000000000000081526001600160a01b038681166004830152858116602483015262ffffff851660448301527f00000000000000000000000000000000000000000000000000000000000000001690631698ee829060640160206040518083038186803b1580156111ab57600080fd5b505afa1580156111bf573d6000803e3d6000fd5b505050506040513d601f19601f820116820180604052508101906111e39190614e3e565b90506001600160a01b03811661131e576040517fa16712950000000000000000000000000000000000000000000000000000000081526001600160a01b038681166004830152858116602483015262ffffff851660448301527f0000000000000000000000000000000000000000000000000000000000000000169063a167129590606401602060405180830381600087803b15801561128257600080fd5b505af1158015611296573d6000803e3d6000fd5b505050506040513d601f19601f820116820180604052508101906112ba9190614e3e565b60405163f637731d60e01b81526001600160a01b0384811660048301529192509082169063f637731d90602401600060405180830381600087803b15801561130157600080fd5b505af1158015611315573d6000803e3d6000fd5b50505050611409565b6000816001600160a01b0316633850c7bd6040518163ffffffff1660e01b815260040160e06040518083038186803b15801561135957600080fd5b505afa15801561136d573d6000803e3d6000fd5b505050506040513d601f19601f8201168201806040525081019061139191906153e9565b5050505050509050806001600160a01b0316600014156114075760405163f637731d60e01b81526001600160a01b03848116600483015283169063f637731d90602401600060405180830381600087803b1580156113ee57600080fd5b505af1158015611402573d6000803e3d6000fd5b505050505b505b949350505050565b60008060008360a0013580611425600a5490565b11156114735760405162461bcd60e51b815260206004820152601360248201527f5472616e73616374696f6e20746f6f206f6c64000000000000000000000000006044820152606401610302565b8435600090815260086020908152604080832060018082015469ffffffffffffffffffff811686526007855283862084516060808201875282546001600160a01b039081168352929094015480831682890190815262ffffff600160a01b9092048216838901908152885161014081018a528451861681529151909416818a0152925116828701523082850152600160501b8304600290810b810b608080850191909152600160681b909404810b900b60a0830152958c013560c0820152938b013560e0850152908a013561010084015289013561012083015292906115589061397d565b6001870154939a509198509650915060009061158b903090600160501b8104600290810b91600160681b9004900b6136ed565b9050600080836001600160a01b031663514ea4bf846040518263ffffffff1660e01b81526004016115be91815260200190565b60a06040518083038186803b1580156115d657600080fd5b505afa1580156115ea573d6000803e3d6000fd5b505050506040513d601f19601f8201168201806040525081019061160e9190615387565b505092509250506116458660020154836116289190615902565b60018801546001600160801b03600160801b918290041690613749565b6004870180546000906116629084906001600160801b0316615844565b92506101000a8154816001600160801b0302191690836001600160801b031602179055506116998660030154826116289190615902565b6004870180546010906116bd908490600160801b90046001600160801b0316615844565b92506101000a8154816001600160801b0302191690836001600160801b03160217905550818660020181905550808660030181905550898660010160108282829054906101000a90046001600160801b03166117199190615844565b82546101009290920a6001600160801b0381810219909316918316021790915560408051918d168252602082018c905281018a90528c3591507f3067048beee31b25b2f1681f88dac838c8bba36af25bfb2b7cf7473a5847e35f9060600160405180910390a2505050505050509193909250565b61179733826134f9565b6118095760405162461bcd60e51b815260206004820152603160248201527f4552433732313a207472616e736665722063616c6c6572206973206e6f74206f60448201527f776e6572206e6f7220617070726f7665640000000000000000000000000000006064820152608401610302565b610bc2838383613c23565b610bc283838360405180602001604052806000815250612bc2565b8061183a33826134f9565b6118755760405162461bcd60e51b815260206004820152600c60248201526b139bdd08185c1c1c9bdd995960a21b6044820152606401610302565b60008281526008602052604090206001810154600160801b90046001600160801b03161580156118b0575060048101546001600160801b0316155b80156118ce57506004810154600160801b90046001600160801b0316155b61191a5760405162461bcd60e51b815260206004820152600b60248201527f4e6f7420636c65617265640000000000000000000000000000000000000000006044820152606401610302565b600083815260086020526040812081815560018101829055600281018290556003810182905560040155610bc283613dfd565b6040517f8fcbaf0c00000000000000000000000000000000000000000000000000000000815233600482015230602482015260448101869052606481018590526001608482015260ff841660a482015260c4810183905260e481018290526001600160a01b03871690638fcbaf0c90610104015b600060405180830381600087803b1580156119db57600080fd5b505af11580156119ef573d6000803e3d6000fd5b50505050505050505050565b6040516370a0823160e01b81523060048201526000907f00000000000000000000000000000000000000000000000000000000000000006001600160a01b0316906370a082319060240160206040518083038186803b158015611a5d57600080fd5b505afa158015611a71573d6000803e3d6000fd5b505050506040513d601f19601f82011682018060405250810190611a9591906154af565b905082811015611ae75760405162461bcd60e51b815260206004820152601260248201527f496e73756666696369656e7420574554483900000000000000000000000000006044820152606401610302565b8015610bc2576040517f2e1a7d4d000000000000000000000000000000000000000000000000000000008152600481018290527f00000000000000000000000000000000000000000000000000000000000000006001600160a01b031690632e1a7d4d90602401600060405180830381600087803b158015611b6857600080fd5b505af1158015611b7c573d6000803e3d6000fd5b50505050610bc282826138c0565b6000818152600260205260408120546001600160a01b0316806109435760405162461bcd60e51b815260206004820152602960248201527f4552433732313a206f776e657220717565727920666f72206e6f6e657869737460448201527f656e7420746f6b656e00000000000000000000000000000000000000000000006064820152608401610302565b60006001600160a01b038216611c935760405162461bcd60e51b815260206004820152602a60248201527f4552433732313a2062616c616e636520717565727920666f7220746865207a6560448201527f726f2061646472657373000000000000000000000000000000000000000000006064820152608401610302565b506001600160a01b031660009081526003602052604090205490565b83611cb9600a5490565b1115611d075760405162461bcd60e51b815260206004820152600e60248201527f5065726d697420657870697265640000000000000000000000000000000000006044820152606401610302565b6000611db260007f8b73c3c69bb8fe3d512ecc4cf759cc79239f7b179b0ffacaa9a75d522b39400f7f00000000000000000000000000000000000000000000000000000000000000007f000000000000000000000000000000000000000000000000000000000000000046604080516020810195909552840192909252606083015260808201523060a082015260c00160405160208183030381529060405280519060200120905090565b7f49ecf333e5b8c95c40fdafc95c1ad136e8914a8fb55e9dc8bb01eaa83a2df9ad8888611dde81613ea5565b6040805160208101959095526001600160a01b03909316928401929092526060830152608082015260a0810187905260c00160405160208183030381529060405280519060200120604051602001611e689291907f190100000000000000000000000000000000000000000000000000000000000081526002810192909252602282015260420190565b6040516020818303038152906040528051906020012090506000611e8b87611b8a565b9050806001600160a01b0316886001600160a01b03161415611f155760405162461bcd60e51b815260206004820152602760248201527f4552433732315065726d69743a20617070726f76616c20746f2063757272656e60448201527f74206f776e6572000000000000000000000000000000000000000000000000006064820152608401610302565b803b1561205157604080516020810186905280820185905260f887901b7fff000000000000000000000000000000000000000000000000000000000000001660608201528151604181830301815260618201928390527f1626ba7e000000000000000000000000000000000000000000000000000000009092526001600160a01b03831691631626ba7e91611fae9186916065016156cb565b60206040518083038186803b158015611fc657600080fd5b505afa158015611fda573d6000803e3d6000fd5b505050506040513d601f19601f82011682018060405250810190611ffe9190615185565b6001600160e01b031916631626ba7e60e01b1461204c5760405162461bcd60e51b815260206004820152600c60248201526b155b985d5d1a1bdc9a5e995960a21b6044820152606401610302565b61215a565b6040805160008082526020820180845285905260ff881692820192909252606081018690526080810185905260019060a0016020604051602081039080840390855afa1580156120a5573d6000803e3d6000fd5b5050604051601f1901519150506001600160a01b0381166121085760405162461bcd60e51b815260206004820152601160248201527f496e76616c6964207369676e61747572650000000000000000000000000000006044820152606401610302565b816001600160a01b0316816001600160a01b0316146121585760405162461bcd60e51b815260206004820152600c60248201526b155b985d5d1a1bdc9a5e995960a21b6044820152606401610302565b505b612164888861347e565b5050505050505050565b60008060008084610140013580612184600a5490565b11156121d25760405162461bcd60e51b815260206004820152601360248201527f5472616e73616374696f6e20746f6f206f6c64000000000000000000000000006044820152606401610302565b60408051610140810190915260009061229e90806121f360208b018b614e21565b6001600160a01b031681526020018960200160208101906122149190614e21565b6001600160a01b0316815260200161223260608b0160408c0161547b565b62ffffff16815230602082015260400161225260808b0160608c016151a2565b60020b815260200161226a60a08b0160808c016151a2565b60020b81526020018960a0013581526020018960c0013581526020018960e00135815260200189610100013581525061397d565b9297509095509350905061230b6122bd61014089016101208a01614e21565b600980546001600160b01b03169060006122d68361597a565b91906101000a8154816001600160b01b0302191690836001600160b01b031602179055506001600160b01b0316975087613f11565b60006123363061232160808b0160608c016151a2565b61233160a08c0160808d016151a2565b6136ed565b9050600080836001600160a01b031663514ea4bf846040518263ffffffff1660e01b815260040161236991815260200190565b60a06040518083038186803b15801561238157600080fd5b505afa158015612395573d6000803e3d6000fd5b505050506040513d601f19601f820116820180604052508101906123b99190615387565b5050925092505060006124328560405180606001604052808e60000160208101906123e49190614e21565b6001600160a01b031681526020018e60200160208101906124059190614e21565b6001600160a01b031681526020018e6040016020810190612426919061547b565b62ffffff169052614060565b905060405180610140016040528060006bffffffffffffffffffffffff16815260200160006001600160a01b031681526020018269ffffffffffffffffffff1681526020018c606001602081019061248a91906151a2565b60020b81526020016124a260a08e0160808f016151a2565b60020b81526020018a6001600160801b0316815260200184815260200183815260200160006001600160801b0316815260200160006001600160801b0316815250600860008c815260200190815260200160002060008201518160000160006101000a8154816bffffffffffffffffffffffff02191690836bffffffffffffffffffffffff160217905550602082015181600001600c6101000a8154816001600160a01b0302191690836001600160a01b0316021790555060408201518160010160006101000a81548169ffffffffffffffffffff021916908369ffffffffffffffffffff160217905550606082015181600101600a6101000a81548162ffffff021916908360020b62ffffff160217905550608082015181600101600d6101000a81548162ffffff021916908360020b62ffffff16021790555060a08201518160010160106101000a8154816001600160801b0302191690836001600160801b0316021790555060c0820151816002015560e082015181600301556101008201518160040160006101000a8154816001600160801b0302191690836001600160801b031602179055506101208201518160040160106101000a8154816001600160801b0302191690836001600160801b03160217905550905050897f3067048beee31b25b2f1681f88dac838c8bba36af25bfb2b7cf7473a5847e35f8a8a8a6040516126cd939291906001600160801b039390931683526020830191909152604082015260600190565b60405180910390a25050505050509193509193565b60606001805461095890615945565b600081815260086020908152604080832081516101408101835281546bffffffffffffffffffffffff811682526001600160a01b03600160601b9091041693810193909352600181015469ffffffffffffffffffff8116928401839052600160501b8104600290810b810b810b6060860152600160681b8204810b810b810b60808601526001600160801b03600160801b92839004811660a08701529083015460c0860152600383015460e08601526004909201548083166101008601520416610120830152829182918291829182918291829182918291829182919061281a5760405162461bcd60e51b815260206004820152601060248201527f496e76616c696420746f6b656e204944000000000000000000000000000000006044820152606401610302565b600060076000836040015169ffffffffffffffffffff1669ffffffffffffffffffff1681526020019081526020016000206040518060600160405290816000820160009054906101000a90046001600160a01b03166001600160a01b03166001600160a01b031681526020016001820160009054906101000a90046001600160a01b03166001600160a01b03166001600160a01b031681526020016001820160149054906101000a900462ffffff1662ffffff1662ffffff1681525050905081600001518260200151826000015183602001518460400151866060015187608001518860a001518960c001518a60e001518b61010001518c61012001519d509d509d509d509d509d509d509d509d509d509d509d50505091939597999b5091939597999b565b600061294e82840184615269565b905061297e7f00000000000000000000000000000000000000000000000000000000000000008260000151614198565b508415612999578051516020820151612999919033886141bb565b83156129b7576129b7816000015160200151826020015133876141bb565b5050505050565b6129c933838361434b565b5050565b604051636eb1769f60e11b8152336004820152306024820152600019906001600160a01b0388169063dd62ed3e9060440160206040518083038186803b158015612a1657600080fd5b505afa158015612a2a573d6000803e3d6000fd5b505050506040513d601f19601f82011682018060405250810190612a4e91906154af565b1015612a6257612a6286868686868661194d565b505050505050565b60608167ffffffffffffffff811115612a8557612a85615ab0565b604051908082528060200260200182016040528015612ab857816020015b6060815260200190600190039081612aa35790505b50905060005b82811015612bbb5760008030868685818110612adc57612adc615a9a565b9050602002810190612aee919061579d565b604051612afc9291906155bd565b600060405180830381855af49150503d8060008114612b37576040519150601f19603f3d011682016040523d82523d6000602084013e612b3c565b606091505b509150915081612b8857604481511015612b5557600080fd5b60048101905080806020019051810190612b6f91906151bf565b60405162461bcd60e51b815260040161030291906156e4565b80848481518110612b9b57612b9b615a9a565b602002602001018190525050508080612bb3906159a1565b915050612abe565b5092915050565b612bcc33836134f9565b612c3e5760405162461bcd60e51b815260206004820152603160248201527f4552433732313a207472616e736665722063616c6c6572206973206e6f74206f60448201527f776e6572206e6f7220617070726f7665640000000000000000000000000000006064820152608401610302565b612c4a8484848461441a565b50505050565b604051636eb1769f60e11b815233600482015230602482015285906001600160a01b0388169063dd62ed3e9060440160206040518083038186803b158015612c9757600080fd5b505afa158015612cab573d6000803e3d6000fd5b505050506040513d601f19601f82011682018060405250810190612ccf91906154af565b1015612a6257612a62868686868686612e9f565b6000818152600260205260409020546060906001600160a01b0316612d0757600080fd5b6040517fe9dc6375000000000000000000000000000000000000000000000000000000008152306004820152602481018390527f00000000000000000000000000000000000000000000000000000000000000006001600160a01b03169063e9dc63759060440160006040518083038186803b158015612d8657600080fd5b505afa158015612d9a573d6000803e3d6000fd5b505050506040513d6000823e601f3d908101601f1916820160405261094391908101906151bf565b6040516370a0823160e01b81523060048201526000906001600160a01b038516906370a082319060240160206040518083038186803b158015612e0457600080fd5b505afa158015612e18573d6000803e3d6000fd5b505050506040513d601f19601f82011682018060405250810190612e3c91906154af565b905082811015612e8e5760405162461bcd60e51b815260206004820152601260248201527f496e73756666696369656e7420746f6b656e00000000000000000000000000006044820152606401610302565b8015612c4a57612c4a8483836144a3565b6040517fd505accf000000000000000000000000000000000000000000000000000000008152336004820152306024820152604481018690526064810185905260ff8416608482015260a4810183905260c481018290526001600160a01b0387169063d505accf9060e4016119c1565b6000808235612f1e33826134f9565b612f595760405162461bcd60e51b815260206004820152600c60248201526b139bdd08185c1c1c9bdd995960a21b6044820152606401610302565b6000612f6b606086016040870161533b565b6001600160801b03161180612f9857506000612f8d608086016060870161533b565b6001600160801b0316115b612fa157600080fd5b600080612fb46040870160208801614e21565b6001600160a01b031614612fd757612fd26040860160208701614e21565b612fd9565b305b8535600090815260086020908152604080832060018082015469ffffffffffffffffffff16855260078452828520835160608101855281546001600160a01b039081168252919092015490811694820194909452600160a01b90930462ffffff16918301919091529293509061306f7f0000000000000000000000000000000000000000000000000000000000000000836135ec565b600484015460018501549192506001600160801b0380821692600160801b92839004821692900416156132745760018501546040517fa34123a7000000000000000000000000000000000000000000000000000000008152600160501b8204600290810b810b6004830152600160681b909204820b90910b6024820152600060448201526001600160a01b0384169063a34123a7906064016040805180830381600087803b15801561312057600080fd5b505af1158015613134573d6000803e3d6000fd5b505050506040513d601f19601f8201168201806040525081019061315891906154ed565b5050600185015460009081906001600160a01b0386169063514ea4bf90613196903090600160501b8104600290810b91600160681b9004900b6136ed565b6040518263ffffffff1660e01b81526004016131b491815260200190565b60a06040518083038186803b1580156131cc57600080fd5b505afa1580156131e0573d6000803e3d6000fd5b505050506040513d601f19601f820116820180604052508101906132049190615387565b5050925092505061323b87600201548361321e9190615902565b60018901546001600160801b03600160801b918290041690613749565b6132459085615844565b935061325a87600301548261321e9190615902565b6132649084615844565b6002880192909255600387015590505b6000806001600160801b03841661329160608e0160408f0161533b565b6001600160801b0316116132b4576132af60608d0160408e0161533b565b6132b6565b835b836001600160801b03168d60600160208101906132d3919061533b565b6001600160801b0316116132f6576132f160808e0160608f0161533b565b6132f8565b835b60018901546040517f4f1eb3d80000000000000000000000000000000000000000000000000000000081526001600160a01b038c81166004830152600160501b8304600290810b810b6024840152600160681b909304830b90920b60448201526001600160801b03808516606483015283166084820152929450909250861690634f1eb3d89060a4016040805180830381600087803b15801561339a57600080fd5b505af11580156133ae573d6000803e3d6000fd5b505050506040513d601f19601f820116820180604052508101906133d29190615358565b6001600160801b039182169c501699506133ec82856158ba565b6133f682856158ba565b6001600160801b03918216908216600160801b027fffffffffffffffffffffffffffffffff0000000000000000000000000000000016176004890155604080516001600160a01b038b1681528483166020820152918316908201528c35907f40d0efd1a53d60ecbf40971b9daf7dc90178c3aadc7aab1765632738fa8b8f01906060016110d6565b600081815260086020526040902080546bffffffffffffffffffffffff16600160601b6001600160a01b0385169081029190911790915581906134c082611b8a565b6001600160a01b03167f8c5be1e5ebec7d5bd14f71427d1e84f3dd0314c0f7b2291e5b200ac8c7c3b92560405160405180910390a45050565b6000818152600260205260408120546001600160a01b03166135725760405162461bcd60e51b815260206004820152602c60248201527f4552433732313a206f70657261746f7220717565727920666f72206e6f6e657860448201526b34b9ba32b73a103a37b5b2b760a11b6064820152608401610302565b600061357d83611b8a565b9050806001600160a01b0316846001600160a01b031614806135b85750836001600160a01b03166135ad846109db565b6001600160a01b0316145b8061140957506001600160a01b0380821660009081526005602090815260408083209388168352929052205460ff16611409565b600081602001516001600160a01b031682600001516001600160a01b03161061361457600080fd5b815160208084015160408086015181516001600160a01b0395861681860152949092168482015262ffffff90911660608085019190915281518085038201815260808501909252815191909201207fff0000000000000000000000000000000000000000000000000000000000000060a08401529085901b6bffffffffffffffffffffffff191660a183015260b58201527fe34f199b19b2b4f47f68442619d555527d244f78a3297ea89325f843f87b8b5460d582015260f50160408051601f1981840301815291905280516020909101209392505050565b6040516bffffffffffffffffffffffff19606085901b166020820152600283810b60e890811b60348401529083900b901b6037820152600090603a016040516020818303038152906040528051906020012090505b9392505050565b600080806000198587098587029250828110838203039150508060001415613783576000841161377857600080fd5b508290049050613742565b80841161378f57600080fd5b6000848688098084039381119092039190506000856137ad81615a35565b169586900495938490049360008190030460010190506137cd818461589b565b9093179260006137de87600361589b565b60021890506137ed818861589b565b6137f8906002615902565b613802908261589b565b905061380e818861589b565b613819906002615902565b613823908261589b565b905061382f818861589b565b61383a906002615902565b613844908261589b565b9050613850818861589b565b61385b906002615902565b613865908261589b565b9050613871818861589b565b61387c906002615902565b613886908261589b565b9050613892818861589b565b61389d906002615902565b6138a7908261589b565b90506138b3818661589b565b9998505050505050505050565b604080516000808252602082019092526001600160a01b0384169083906040516138ea91906155cd565b60006040518083038185875af1925050503d8060008114613927576040519150601f19603f3d011682016040523d82523d6000602084013e61392c565b606091505b5050905080610bc25760405162461bcd60e51b815260206004820152600360248201527f53544500000000000000000000000000000000000000000000000000000000006044820152606401610302565b6000806000806000604051806060016040528087600001516001600160a01b0316815260200187602001516001600160a01b03168152602001876040015162ffffff1681525090506139ef7f0000000000000000000000000000000000000000000000000000000000000000826135ec565b91506000826001600160a01b0316633850c7bd6040518163ffffffff1660e01b815260040160e06040518083038186803b158015613a2c57600080fd5b505afa158015613a40573d6000803e3d6000fd5b505050506040513d601f19601f82011682018060405250810190613a6491906153e9565b50505050505090506000613a7b88608001516145b7565b90506000613a8c8960a001516145b7565b9050613aa38383838c60c001518d60e001516149e8565b9750505050816001600160a01b0316633c8a7d8d876060015188608001518960a00151896040518060400160405280888152602001336001600160a01b0316815250604051602001613b309190815180516001600160a01b03908116835260208083015182168185015260409283015162ffffff1692840192909252920151909116606082015260800190565b6040516020818303038152906040526040518663ffffffff1660e01b8152600401613b5f95949392919061561b565b6040805180830381600087803b158015613b7857600080fd5b505af1158015613b8c573d6000803e3d6000fd5b505050506040513d601f19601f82011682018060405250810190613bb091906154ed565b61010088015191955093508410801590613bcf57508561012001518310155b613c1b5760405162461bcd60e51b815260206004820152601460248201527f507269636520736c69707061676520636865636b0000000000000000000000006044820152606401610302565b509193509193565b826001600160a01b0316613c3682611b8a565b6001600160a01b031614613cb25760405162461bcd60e51b815260206004820152602960248201527f4552433732313a207472616e73666572206f6620746f6b656e2074686174206960448201527f73206e6f74206f776e00000000000000000000000000000000000000000000006064820152608401610302565b6001600160a01b038216613d2d5760405162461bcd60e51b8152602060048201526024808201527f4552433732313a207472616e7366657220746f20746865207a65726f2061646460448201527f72657373000000000000000000000000000000000000000000000000000000006064820152608401610302565b613d3860008261347e565b6001600160a01b0383166000908152600360205260408120805460019290613d61908490615902565b90915550506001600160a01b0382166000908152600360205260408120805460019290613d8f90849061586f565b9091555050600081815260026020526040808220805473ffffffffffffffffffffffffffffffffffffffff19166001600160a01b0386811691821790925591518493918716917fddf252ad1be2c89b69c2b068fc378daa952ba7f163c4a11628f55a4df523b3ef91a4505050565b6000613e0882611b8a565b9050613e1560008361347e565b6001600160a01b0381166000908152600360205260408120805460019290613e3e908490615902565b9091555050600082815260026020526040808220805473ffffffffffffffffffffffffffffffffffffffff19169055518391906001600160a01b038416907fddf252ad1be2c89b69c2b068fc378daa952ba7f163c4a11628f55a4df523b3ef908390a45050565b600081815260086020526040812080546bffffffffffffffffffffffff169082613ece836159dc565b91906101000a8154816bffffffffffffffffffffffff02191690836bffffffffffffffffffffffff1602179055506bffffffffffffffffffffffff169050919050565b6001600160a01b038216613f675760405162461bcd60e51b815260206004820181905260248201527f4552433732313a206d696e7420746f20746865207a65726f20616464726573736044820152606401610302565b6000818152600260205260409020546001600160a01b031615613fcc5760405162461bcd60e51b815260206004820152601c60248201527f4552433732313a20746f6b656e20616c7265616479206d696e746564000000006044820152606401610302565b6001600160a01b0382166000908152600360205260408120805460019290613ff590849061586f565b9091555050600081815260026020526040808220805473ffffffffffffffffffffffffffffffffffffffff19166001600160a01b03861690811790915590518392907fddf252ad1be2c89b69c2b068fc378daa952ba7f163c4a11628f55a4df523b3ef908290a45050565b6001600160a01b03821660009081526006602052604090205469ffffffffffffffffffff16806109435760098054760100000000000000000000000000000000000000000000900469ffffffffffffffffffff169060166140c0836159bc565b82546101009290920a69ffffffffffffffffffff8181021990931691831602179091556001600160a01b039485166000908152600660209081526040808320805469ffffffffffffffffffff1916948616948517905592825260078152908290208551815473ffffffffffffffffffffffffffffffffffffffff1916908816178155908501516001919091018054959092015195167fffffffffffffffffff000000000000000000000000000000000000000000000090941693909317600160a01b62ffffff90951694909402939093179091555090565b60006141a483836135ec565b9050336001600160a01b0382161461094357600080fd5b7f00000000000000000000000000000000000000000000000000000000000000006001600160a01b0316846001600160a01b03161480156141fc5750804710155b1561431e577f00000000000000000000000000000000000000000000000000000000000000006001600160a01b031663d0e30db0826040518263ffffffff1660e01b81526004016000604051808303818588803b15801561425c57600080fd5b505af1158015614270573d6000803e3d6000fd5b505060405163a9059cbb60e01b81526001600160a01b038681166004830152602482018690527f000000000000000000000000000000000000000000000000000000000000000016935063a9059cbb92506044019050602060405180830381600087803b1580156142e057600080fd5b505af11580156142f4573d6000803e3d6000fd5b505050506040513d601f19601f82011682018060405250810190614318919061514b565b50612c4a565b6001600160a01b03831630141561433f5761433a8483836144a3565b612c4a565b612c4a84848484614aac565b816001600160a01b0316836001600160a01b031614156143ad5760405162461bcd60e51b815260206004820152601960248201527f4552433732313a20617070726f766520746f2063616c6c6572000000000000006044820152606401610302565b6001600160a01b03838116600081815260056020908152604080832094871680845294825291829020805460ff191686151590811790915591519182527f17307eab39ab6107e8899845ad3d59bd9653f200f220920489ca2b5937696c31910160405180910390a3505050565b614425848484613c23565b61443184848484614be1565b612c4a5760405162461bcd60e51b815260206004820152603260248201527f4552433732313a207472616e7366657220746f206e6f6e20455243373231526560448201527f63656976657220696d706c656d656e74657200000000000000000000000000006064820152608401610302565b604080516001600160a01b038481166024830152604480830185905283518084039091018152606490920183526020820180516001600160e01b031663a9059cbb60e01b17905291516000928392908716916144ff91906155cd565b6000604051808303816000865af19150503d806000811461453c576040519150601f19603f3d011682016040523d82523d6000602084013e614541565b606091505b509150915081801561456b57508051158061456b57508080602001905181019061456b919061514b565b6129b75760405162461bcd60e51b815260206004820152600260248201527f53540000000000000000000000000000000000000000000000000000000000006044820152606401610302565b60008060008360020b126145ce578260020b6145db565b8260020b6145db90615a35565b90506145ea620d89e719615a12565b60020b81111561463c5760405162461bcd60e51b815260206004820152600160248201527f54000000000000000000000000000000000000000000000000000000000000006044820152606401610302565b60006001821661465057600160801b614662565b6ffffcb933bd6fad37aa2d162d1a5940015b70ffffffffffffffffffffffffffffffffff16905060028216156146a157608061469c826ffff97272373d413259a46990580e213a61589b565b901c90505b60048216156146cb5760806146c6826ffff2e50f5f656932ef12357cf3c7fdcc61589b565b901c90505b60088216156146f55760806146f0826fffe5caca7e10e4e61c3624eaa0941cd061589b565b901c90505b601082161561471f57608061471a826fffcb9843d60f6159c9db58835c92664461589b565b901c90505b6020821615614749576080614744826fff973b41fa98c081472e6896dfb254c061589b565b901c90505b604082161561477357608061476e826fff2ea16466c96a3843ec78b326b5286161589b565b901c90505b608082161561479d576080614798826ffe5dee046a99a2a811c461f1969c305361589b565b901c90505b6101008216156147c85760806147c3826ffcbe86c7900a88aedcffc83b479aa3a461589b565b901c90505b6102008216156147f35760806147ee826ff987a7253ac413176f2b074cf7815e5461589b565b901c90505b61040082161561481e576080614819826ff3392b0822b70005940c7a398e4b70f361589b565b901c90505b610800821615614849576080614844826fe7159475a2c29b7443b29c7fa6e889d961589b565b901c90505b61100082161561487457608061486f826fd097f3bdfd2022b8845ad8f792aa582561589b565b901c90505b61200082161561489f57608061489a826fa9f746462d870fdf8a65dc1f90e061e561589b565b901c90505b6140008216156148ca5760806148c5826f70d869a156d2a1b890bb3df62baf32f761589b565b901c90505b6180008216156148f55760806148f0826f31be135f97d08fd981231505542fcfa661589b565b901c90505b6201000082161561492157608061491c826f09aa508b5b7a84e1c677de54f3e99bc961589b565b901c90505b6202000082161561494c576080614947826e5d6af8dedb81196699c329225ee60461589b565b901c90505b62040000821615614976576080614971826d2216e584f5fa1ea926041bedfe9861589b565b901c90505b6208000082161561499e576080614999826b048a170391f7dc42444e8fa261589b565b901c90505b60008460020b13156149b9576149b681600019615887565b90505b6149c8640100000000826159fe565b156149d45760016149d7565b60005b6114099060ff16602083901c61586f565b6000836001600160a01b0316856001600160a01b03161115614a08579293925b846001600160a01b0316866001600160a01b031611614a3357614a2c858585614d41565b9050614aa3565b836001600160a01b0316866001600160a01b03161015614a95576000614a5a878686614d41565b90506000614a69878986614dab565b9050806001600160801b0316826001600160801b031610614a8a5780614a8c565b815b92505050614aa3565b614aa0858584614dab565b90505b95945050505050565b604080516001600160a01b0385811660248301528481166044830152606480830185905283518084039091018152608490920183526020820180516001600160e01b03167f23b872dd000000000000000000000000000000000000000000000000000000001790529151600092839290881691614b2991906155cd565b6000604051808303816000865af19150503d8060008114614b66576040519150601f19603f3d011682016040523d82523d6000602084013e614b6b565b606091505b5091509150818015614b95575080511580614b95575080806020019051810190614b95919061514b565b612a625760405162461bcd60e51b815260206004820152600360248201527f53544600000000000000000000000000000000000000000000000000000000006044820152606401610302565b60006001600160a01b0384163b15614d3957604051630a85bd0160e11b81526001600160a01b0385169063150b7a0290614c259033908990889088906004016155e9565b602060405180830381600087803b158015614c3f57600080fd5b505af1925050508015614c6f575060408051601f3d908101601f19168201909252614c6c91810190615185565b60015b614d1f573d808015614c9d576040519150601f19603f3d011682016040523d82523d6000602084013e614ca2565b606091505b508051614d175760405162461bcd60e51b815260206004820152603260248201527f4552433732313a207472616e7366657220746f206e6f6e20455243373231526560448201527f63656976657220696d706c656d656e74657200000000000000000000000000006064820152608401610302565b805181602001fd5b6001600160e01b031916630a85bd0160e11b149050611409565b506001611409565b6000826001600160a01b0316846001600160a01b03161115614d61579192915b6000614d84856001600160a01b0316856001600160a01b0316600160601b613749565b9050614aa3614da68483614d9889896158e2565b6001600160a01b0316613749565b614de1565b6000826001600160a01b0316846001600160a01b03161115614dcb579192915b611409614da683600160601b614d9888886158e2565b806001600160801b0381168114614df757600080fd5b919050565b805161ffff81168114614df757600080fd5b803562ffffff81168114614df757600080fd5b600060208284031215614e3357600080fd5b813561374281615ac6565b600060208284031215614e5057600080fd5b815161374281615ac6565b60008060408385031215614e6e57600080fd5b8235614e7981615ac6565b91506020830135614e8981615ac6565b809150509250929050565b60008060008060808587031215614eaa57600080fd5b8435614eb581615ac6565b93506020850135614ec581615ac6565b9250614ed360408601614e0e565b91506060850135614ee381615ac6565b939692955090935050565b600080600060608486031215614f0357600080fd5b8335614f0e81615ac6565b92506020840135614f1e81615ac6565b929592945050506040919091013590565b60008060008060808587031215614f4557600080fd5b8435614f5081615ac6565b93506020850135614f6081615ac6565b925060408501359150606085013567ffffffffffffffff811115614f8357600080fd5b8501601f81018713614f9457600080fd5b8035614fa7614fa28261581c565b6157eb565b818152886020838501011115614fbc57600080fd5b8160208401602083013760006020838301015280935050505092959194509250565b60008060408385031215614ff157600080fd5b8235614ffc81615ac6565b91506020830135614e8981615ade565b6000806040838503121561501f57600080fd5b823561502a81615ac6565b946020939093013593505050565b60008060006060848603121561504d57600080fd5b833561505881615ac6565b925060208401359150604084013561506f81615ac6565b809150509250925092565b60008060008060008060c0878903121561509357600080fd5b863561509e81615ac6565b9550602087013594506040870135935060608701356150bc81615b26565b9598949750929560808101359460a0909101359350915050565b600080602083850312156150e957600080fd5b823567ffffffffffffffff8082111561510157600080fd5b818501915085601f83011261511557600080fd5b81358181111561512457600080fd5b8660208260051b850101111561513957600080fd5b60209290920196919550909350505050565b60006020828403121561515d57600080fd5b815161374281615ade565b60006020828403121561517a57600080fd5b813561374281615aec565b60006020828403121561519757600080fd5b815161374281615aec565b6000602082840312156151b457600080fd5b813561374281615b02565b6000602082840312156151d157600080fd5b815167ffffffffffffffff8111156151e857600080fd5b8201601f810184136151f957600080fd5b8051615207614fa28261581c565b81815285602083850101111561521c57600080fd5b614aa3826020830160208601615919565b60006080828403121561523f57600080fd5b50919050565b600060a0828403121561523f57600080fd5b600060c0828403121561523f57600080fd5b6000818303608081121561527c57600080fd5b6040516040810167ffffffffffffffff82821081831117156152a0576152a0615ab0565b8160405260608412156152b257600080fd5b60a08301935081841081851117156152cc576152cc615ab0565b5082604052843592506152de83615ac6565b9182526020840135916152f083615ac6565b82606083015261530260408601614e0e565b608083015281526060840135915061531982615ac6565b60208101919091529392505050565b6000610160828403121561523f57600080fd5b60006020828403121561534d57600080fd5b813561374281615b11565b6000806040838503121561536b57600080fd5b825161537681615b11565b6020840151909250614e8981615b11565b600080600080600060a0868803121561539f57600080fd5b85516153aa81615b11565b80955050602086015193506040860151925060608601516153ca81615b11565b60808701519092506153db81615b11565b809150509295509295909350565b600080600080600080600060e0888a03121561540457600080fd5b875161540f81615ac6565b602089015190975061542081615b02565b955061542e60408901614dfc565b945061543c60608901614dfc565b935061544a60808901614dfc565b925060a088015161545a81615b26565b60c089015190925061546b81615ade565b8091505092959891949750929550565b60006020828403121561548d57600080fd5b61374282614e0e565b6000602082840312156154a857600080fd5b5035919050565b6000602082840312156154c157600080fd5b5051919050565b600080604083850312156154db57600080fd5b823591506020830135614e8981615ac6565b6000806040838503121561550057600080fd5b505080516020909101519092909150565b6000806000806060858703121561552757600080fd5b8435935060208501359250604085013567ffffffffffffffff8082111561554d57600080fd5b818701915087601f83011261556157600080fd5b81358181111561557057600080fd5b88602082850101111561558257600080fd5b95989497505060200194505050565b600081518084526155a9816020860160208601615919565b601f01601f19169290920160200192915050565b8183823760009101908152919050565b600082516155df818460208701615919565b9190910192915050565b60006001600160a01b03808716835280861660208401525083604083015260806060830152614aa06080830184615591565b6001600160a01b03861681528460020b60208201528360020b60408201526001600160801b038316606082015260a06080820152600061565e60a0830184615591565b979650505050505050565b6000602080830181845280855180835260408601915060408160051b870101925083870160005b828110156156be57603f198886030184526156ac858351615591565b94509285019290850190600101615690565b5092979650505050505050565b8281526040602082015260006114096040830184615591565b6020815260006137426020830184615591565b6bffffffffffffffffffffffff8d1681526001600160a01b038c811660208301528b811660408301528a16606082015262ffffff89166080820152600288810b60a083015287900b60c082015261018081016001600160801b03871660e0830152856101008301528461012083015261577c6101408301856001600160801b03169052565b6001600160801b0383166101608301529d9c50505050505050505050505050565b6000808335601e198436030181126157b457600080fd5b83018035915067ffffffffffffffff8211156157cf57600080fd5b6020019150368190038213156157e457600080fd5b9250929050565b604051601f8201601f1916810167ffffffffffffffff8111828210171561581457615814615ab0565b604052919050565b600067ffffffffffffffff82111561583657615836615ab0565b50601f01601f191660200190565b60006001600160801b0380831681851680830382111561586657615866615a6e565b01949350505050565b6000821982111561588257615882615a6e565b500190565b60008261589657615896615a84565b500490565b60008160001904831182151516156158b5576158b5615a6e565b500290565b60006001600160801b03838116908316818110156158da576158da615a6e565b039392505050565b60006001600160a01b03838116908316818110156158da576158da615a6e565b60008282101561591457615914615a6e565b500390565b60005b8381101561593457818101518382015260200161591c565b83811115612c4a5750506000910152565b600181811c9082168061595957607f821691505b6020821081141561523f57634e487b7160e01b600052602260045260246000fd5b60006001600160b01b038083168181141561599757615997615a6e565b6001019392505050565b60006000198214156159b5576159b5615a6e565b5060010190565b600069ffffffffffffffffffff8083168181141561599757615997615a6e565b60006bffffffffffffffffffffffff8083168181141561599757615997615a6e565b600082615a0d57615a0d615a84565b500690565b60008160020b627fffff19811415615a2c57615a2c615a6e565b60000392915050565b60007f8000000000000000000000000000000000000000000000000000000000000000821415615a6757615a67615a6e565b5060000390565b634e487b7160e01b600052601160045260246000fd5b634e487b7160e01b600052601260045260246000fd5b634e487b7160e01b600052603260045260246000fd5b634e487b7160e01b600052604160045260246000fd5b6001600160a01b0381168114615adb57600080fd5b50565b8015158114615adb57600080fd5b6001600160e01b031981168114615adb57600080fd5b8060020b8114615adb57600080fd5b6001600160801b0381168114615adb57600080fd5b60ff81168114615adb57600080fdfea164736f6c6343000806000a",
  "linkReferences": {},
  "deployedLinkReferences": {}
}