{
  "_format": "hh-sol-artifact-1",
  "contractName": "MockObservable",
  "sourceName": "contracts/test/MockObservable.sol",
  "abi": [
    {
      "inputs": [
        {
          "internalType": "uint32[]",
          "name": "secondsAgos",
          "type": "uint32[]"
        },
        {
          "internalType": "int56[]",
          "name": "tickCumulatives",
          "type": "int56[]"
        },
        {
          "internalType": "uint160[]",
          "name": "secondsPerLiquidityCumulativeX128s",
          "type": "uint160[]"
        }
      ],
      "stateMutability": "nonpayable",
      "type": "constructor"
    },
    {
      "inputs": [
        {
          "internalType": "uint32[]",
          "name": "secondsAgos",
          "type": "uint32[]"
        }
      ],
      "name": "observe",
      "outputs": [
        {
          "internalType": "int56[]",
          "name": "tickCumulatives",
          "type": "int56[]"
        },
        {
          "internalType": "uint160[]",
          "name": "secondsPerLiquidityCumulativeX128s",
          "type": "uint160[]"
        }
      ],
      "stateMutability": "view",
      "type": "function"
    }
  ],
  "bytecode": "0x60806040523480156200001157600080fd5b5060405162000959380380620009598339810160408190526200003491620003a0565b8251600214801562000047575081516002145b801562000055575080516002145b620000a65760405162461bcd60e51b815260206004820152601660248201527f496e76616c6964207465737420636173652073697a6500000000000000000000604482015260640160405180910390fd5b604051806060016040528084600081518110620000c757620000c762000501565b602002602001015163ffffffff16815260200183600081518110620000f057620000f062000501565b602002602001015160060b81526020018260008151811062000116576200011662000501565b6020908102919091018101516001600160a01b03908116909252825160008054928501516040958601519094166b01000000000000000000000002600160581b600160f81b031960069590950b66ffffffffffffff16640100000000026001600160581b031990941663ffffffff9093169290921792909217929092169190911790558051606081019091528351819085906001908110620001bc57620001bc62000501565b602002602001015163ffffffff16815260200183600181518110620001e557620001e562000501565b602002602001015160060b8152602001826001815181106200020b576200020b62000501565b6020908102919091018101516001600160a01b03908116909252825160018054928501516040909501519093166b01000000000000000000000002600160581b600160f81b031960069590950b66ffffffffffffff16640100000000026001600160581b031990931663ffffffff909216919091179190911792909216919091179055506200052d915050565b600082601f830112620002aa57600080fd5b81516020620002c3620002bd83620004db565b620004a8565b80838252828201915082860187848660051b8901011115620002e457600080fd5b6000805b86811015620003155782518060060b811462000302578283fd5b85529385019391850191600101620002e8565b509198975050505050505050565b600082601f8301126200033557600080fd5b8151602062000348620002bd83620004db565b80838252828201915082860187848660051b89010111156200036957600080fd5b6000805b86811015620003155782516001600160a01b03811681146200038d578283fd5b855293850193918501916001016200036d565b600080600060608486031215620003b657600080fd5b83516001600160401b0380821115620003ce57600080fd5b818601915086601f830112620003e357600080fd5b81516020620003f6620002bd83620004db565b8083825282820191508286018b848660051b89010111156200041757600080fd5b600096505b848710156200044f57805163ffffffff811681146200043a57600080fd5b8352600196909601959183019183016200041c565b50918901519197509093505050808211156200046a57600080fd5b620004788783880162000298565b935060408601519150808211156200048f57600080fd5b506200049e8682870162000323565b9150509250925092565b604051601f8201601f191681016001600160401b0381118282101715620004d357620004d362000517565b604052919050565b60006001600160401b03821115620004f757620004f762000517565b5060051b60200190565b634e487b7160e01b600052603260045260246000fd5b634e487b7160e01b600052604160045260246000fd5b61041c806200053d6000396000f3fe608060405234801561001057600080fd5b506004361061002b5760003560e01c8063883bdbfd14610030575b600080fd5b61004361003e3660046102aa565b61005a565b60405161005192919061034c565b60405180910390f35b60008054606091829163ffffffff1690859085908161007b5761007b6103e0565b9050602002016020810190610090919061031f565b63ffffffff161480156100d957506001805463ffffffff1690859085908181106100bc576100bc6103e0565b90506020020160208101906100d1919061031f565b63ffffffff16145b610143576040517f08c379a000000000000000000000000000000000000000000000000000000000815260206004820152601160248201527f496e76616c696420746573742063617365000000000000000000000000000000604482015260640160405180910390fd5b6040805160028082526060820183526000926020830190803683375050600080548351939450640100000000900460060b92849250610184576101846103e0565b600692830b830b602091820292909201015260018054835164010000000090910490920b9183919081106101ba576101ba6103e0565b600692830b90920b602092830291909101820152604080516002808252606082018352600093919290918301908036833750506000805483519394506b010000000000000000000000900473ffffffffffffffffffffffffffffffffffffffff169284925061022b5761022b6103e0565b73ffffffffffffffffffffffffffffffffffffffff92831660209182029290920101526001805483516b010000000000000000000000909104909216918391908110610279576102796103e0565b73ffffffffffffffffffffffffffffffffffffffff9092166020928302919091019091015290925090509250929050565b600080602083850312156102bd57600080fd5b823567ffffffffffffffff808211156102d557600080fd5b818501915085601f8301126102e957600080fd5b8135818111156102f857600080fd5b8660208260051b850101111561030d57600080fd5b60209290920196919550909350505050565b60006020828403121561033157600080fd5b813563ffffffff8116811461034557600080fd5b9392505050565b604080825283519082018190526000906020906060840190828701845b8281101561038857815160060b84529284019290840190600101610369565b5050508381038285015284518082528583019183019060005b818110156103d357835173ffffffffffffffffffffffffffffffffffffffff16835292840192918401916001016103a1565b5090979650505050505050565b7f4e487b7100000000000000000000000000000000000000000000000000000000600052603260045260246000fdfea164736f6c6343000806000a",
  "linkReferences": {},
  "deployedLinkReferences": {}
}