{
  "_format": "hh-sol-artifact-1",
  "contractName": "MockObservations",
  "sourceName": "contracts/test/MockObservations.sol",
  "abi": [
    {
      "inputs": [
        {
          "internalType": "uint32[4]",
          "name": "_blockTimestamps",
          "type": "uint32[4]"
        },
        {
          "internalType": "int56[4]",
          "name": "_tickCumulatives",
          "type": "int56[4]"
        },
        {
          "internalType": "uint128[4]",
          "name": "_secondsPerLiquidityCumulativeX128s",
          "type": "uint128[4]"
        },
        {
          "internalType": "bool[4]",
          "name": "_initializeds",
          "type": "bool[4]"
        },
        {
          "internalType": "int24",
          "name": "_tick",
          "type": "int24"
        },
        {
          "internalType": "uint16",
          "name": "_observationCardinality",
          "type": "uint16"
        },
        {
          "internalType": "uint16",
          "name": "_observationIndex",
          "type": "uint16"
        },
        {
          "internalType": "bool",
          "name": "_lastObservationCurrentTimestamp",
          "type": "bool"
        },
        {
          "internalType": "uint128",
          "name": "_liquidity",
          "type": "uint128"
        }
      ],
      "stateMutability": "nonpayable",
      "type": "constructor"
    },
    {
      "inputs": [],
      "name": "liquidity",
      "outputs": [
        {
          "internalType": "uint128",
          "name": "",
          "type": "uint128"
        }
      ],
      "stateMutability": "view",
      "type": "function"
    },
    {
      "inputs": [
        {
          "internalType": "uint256",
          "name": "index",
          "type": "uint256"
        }
      ],
      "name": "observations",
      "outputs": [
        {
          "internalType": "uint32",
          "name": "",
          "type": "uint32"
        },
        {
          "internalType": "int56",
          "name": "",
          "type": "int56"
        },
        {
          "internalType": "uint160",
          "name": "",
          "type": "uint160"
        },
        {
          "internalType": "bool",
          "name": "",
          "type": "bool"
        }
      ],
      "stateMutability": "view",
      "type": "function"
    },
    {
      "inputs": [],
      "name": "slot0",
      "outputs": [
        {
          "internalType": "uint160",
          "name": "",
          "type": "uint160"
        },
        {
          "internalType": "int24",
          "name": "",
          "type": "int24"
        },
        {
          "internalType": "uint16",
          "name": "",
          "type": "uint16"
        },
        {
          "internalType": "uint16",
          "name": "",
          "type": "uint16"
        },
        {
          "internalType": "uint16",
          "name": "",
          "type": "uint16"
        },
        {
          "internalType": "uint8",
          "name": "",
          "type": "uint8"
        },
        {
          "internalType": "bool",
          "name": "",
          "type": "bool"
        }
      ],
      "stateMutability": "view",
      "type": "function"
    }
  ],
  "bytecode": "0x608060405234801561001057600080fd5b5060405161082f38038061082f83398101604081905261002f91610380565b60005b600481101561017d5760405180608001604052808b8360048110610058576100586104ea565b602002015163ffffffff1681526020018a836004811061007a5761007a6104ea565b602002015160060b8152602001898360048110610099576100996104ea565b60200201516001600160801b03166001600160a01b031681526020018883600481106100c7576100c76104ea565b602002015115159052600082600481106100e3576100e36104ea565b825191018054602084015160408501516060909501511515600160f81b026001600160f81b036001600160a01b039096166b01000000000000000000000002959095166001600160581b0360069290920b66ffffffffffffff16640100000000026001600160581b031990931663ffffffff9095169490941791909117169190911791909117905580610175816104c1565b915050610032565b50600480546001600160801b0390921667010000000000000002600160381b600160b81b0319931515600160b81b0260ff60b81b1961ffff96871665010000000000021661ffff60281b60ff60b81b01199690971663010000000264ffffffffff1990941660029890980b62ffffff169790971792909217939093169390931793909317929092161790555061050092505050565b600082601f83011261022357600080fd5b61022b61048b565b80838560808601111561023d57600080fd5b60005b60048110156102675761025282610330565b84526020938401939190910190600101610240565b509095945050505050565b600082601f83011261028357600080fd5b61028b61048b565b80838560808601111561029d57600080fd5b6000805b60048110156102cf5782518060060b81146102ba578283fd5b855260209485019492909201916001016102a1565b50919695505050505050565b600082601f8301126102ec57600080fd5b6102f461048b565b80838560808601111561030657600080fd5b60005b60048110156102675761031b82610357565b84526020938401939190910190600101610309565b8051801515811461034057600080fd5b919050565b8051600281900b811461034057600080fd5b80516001600160801b038116811461034057600080fd5b805161ffff8116811461034057600080fd5b60008060008060008060008060006102a08a8c03121561039f57600080fd5b8a601f8b01126103ae57600080fd5b6103b661048b565b808b60808d018e8111156103c957600080fd5b6000805b60048110156103fe57835163ffffffff811681146103e9578283fd5b865260209586019593909301926001016103cd565b5050829c5061040d8f82610272565b9b50505050506104218b6101008c016102db565b96506104318b6101808c01610212565b95506104406102008b01610345565b945061044f6102208b0161036e565b935061045e6102408b0161036e565b925061046d6102608b01610330565b915061047c6102808b01610357565b90509295985092959850929598565b604051608081016001600160401b03811182821017156104bb57634e487b7160e01b600052604160045260246000fd5b60405290565b60006000198214156104e357634e487b7160e01b600052601160045260246000fd5b5060010190565b634e487b7160e01b600052603260045260246000fd5b6103208061050f6000396000f3fe608060405234801561001057600080fd5b50600436106100415760003560e01c80631a68650214610046578063252c09d7146100935780633850c7bd146100ed575b600080fd5b60045461006d9067010000000000000090046fffffffffffffffffffffffffffffffff1681565b6040516fffffffffffffffffffffffffffffffff90911681526020015b60405180910390f35b6100a66100a136600461027f565b610148565b6040805163ffffffff909516855260069390930b602085015273ffffffffffffffffffffffffffffffffffffffff909116918301919091521515606082015260800161008a565b600454604080516000808252600284810b900b602083015261ffff650100000000008504811693830193909352630100000090930490911660608201526080810182905260a0810182905260c081019190915260e00161008a565b6000806000806000808660048110610162576101626102e4565b60408051608081018252929091015463ffffffff811683526401000000008104600690810b810b900b602084015273ffffffffffffffffffffffffffffffffffffffff6b0100000000000000000000008204169183019190915260ff7f010000000000000000000000000000000000000000000000000000000000000090910481161515606083015260045491925077010000000000000000000000000000000000000000000000909104161561025e578051600480546000916501000000000090910461ffff16908110610239576102396102e4565b015461024b919063ffffffff16610298565b6102559042610298565b63ffffffff1681525b80516020820151604083015160609093015191989097509195509350915050565b60006020828403121561029157600080fd5b5035919050565b600063ffffffff838116908316818110156102dc577f4e487b7100000000000000000000000000000000000000000000000000000000600052601160045260246000fd5b039392505050565b7f4e487b7100000000000000000000000000000000000000000000000000000000600052603260045260246000fdfea164736f6c6343000806000a",
  "linkReferences": {},
  "deployedLinkReferences": {}
}